:020000040800F2
:10000000680F002015020008632900082D28000849
:100010006129000805110008BF3600080000000033
:10002000000000000000000000000000A92A0008F5
:10003000071100080000000065290008AB2A00082D
:100040002F0200082F0200082F0200082F020008CC
:100050002F0200082F0200082F0200082F020008BC
:100060002F0200082F0200082F0200082F020008AC
:100070002F0200082F0200082F0200082F0200089C
:100080002F0200082F0200082F0200082F0200088C
:100090002F0200082F0200082F0200082F0200087C
:1000A0002F0200082F0200082F0200082F0200086C
:1000B0002F0200082F0200082F0200082F0200085C
:1000C0002F0200082F0200082F0200082F0200084C
:1000D0002F020008592D00082F0200082F020008E7
:1000E0002F0200082F0200082F02000800F002F87B
:1000F00000F047F80AA090E8000C82448344AAF17B
:100100000107DA4501D100F03CF8AFF2090EBAE878
:100110000F0013F0010F18BFFB1A43F0010318473B
:10012000B8430000D8430000103A24BF78C878C113
:10013000FAD8520724BF30C830C144BF04680C60ED
:10014000704700000023002400250026103A28BF35
:1001500078C1FBD8520728BF30C148BF0B60704739
:10016000752900F05181002070471FB59DE80300FC
:1001700000F0E0FA00F0BAFB1FBD10B500F01FFC64
:1001800010BD00F057FC1146FFF7EFFF03F0AAFF88
:1001900000F020FE03B4FFF7F0FF03BC00F058FEB0
:1001A0000246D2E84F0F411CC2E8431F03B1F8E7F3
:1001B0007047024652E8000F411C42E8001303B1A9
:1001C000F8E77047024652E8000F42E8001303B117
:1001D000F9E77047024652E8000F830103D3BFF3EB
:1001E0002F8F0020704700F00040084342E80003D2
:1001F00003B1F0E77047024652E8000F800103D2D6
:10020000BFF32F8F0020704742E8001303B1F3E7DC
:10021000012070470948804709480047FEE7FEE78C
:10022000FEE7FEE7FEE7FEE7FEE7FEE7FEE7FEE7A6
:1002300004480549054A064B704700000B2B00088F
:10024000ED00000868070020680F0020680B002000
:10025000680B002070B5064600F050FA056806F1FC
:100260000B0020F00704B4429CBF002070BD2B4659
:100270006A68BAB11068A04210D304F1080188423C
:100280003CBF5068586007D351681019416011682D
:10029000091B016058601460101D70BD1346526840
:1002A000002AE7D12146284600F030FA0028DED1A6
:1002B00070BD70B50446051F00F020FA0068002CE0
:1002C00014BF446870BD002C18BFAC423CBF204630
:1002D0006468F8D301680A18AA4218BF456003D1C0
:1002E0002A6805461144016028684119A1421CBFD3
:1002F0006C6070BD6168696021680844286070BDE9
:1003000053EA020C00F069802DE9F04B4FF0000633
:10031000002B1FBFB3FA83F503FA05F424FA05F6A0
:100320005E4012BF1643B2FA82F502FA05F4C5F137
:1003300020051EBF22FA05FC44EA0C04203556EACB
:10034000044C4FEA144418BF641C4FF000084FF0EF
:100350000009904271EB030C39D3002919BFB1FA9F
:1003600081F701FA07F6B0FA80F700FA07F6C7F14D
:1003700020071EBF20FA07FC46EA0C062037B6FB12
:10038000F4FCA7EB0507103F07F01F0BCBF120068D
:100390000CFA0BFB2CFA06F644BFB3460026202FBE
:1003A000A4BF5E464FF0000B5BEA060C08BF4FF09F
:1003B000010B19EB0B09ABFB027C48EB0608C01BD9
:1003C00006FB02CC0BFB03CC71EB0C01C1E70B4627
:1003D000024641464846BDE8F08B13B54FF0000099
:1003E0004FF00001AFF30080BDE81C4070470000F3
:1003F0000FB4044910B503AA029800F02BFA10BC00
:100400005DF814FBB40100202DE9F04106460024FC
:1004100010687529314616A510D0AFF3008000286A
:1004200002DA404213A507E031688A0701D512A518
:1004300002E0490704D511A5012401E0AFF30080D3
:1004400000210A2206F1240709E0B0FBF2FCB0FB10
:10045000F2F302FB1C00303078541846491C002887
:10046000F3D123462A463046BDE8F04100F098B962
:10047000000000002D0000002B0000002000000004
:100480002DE9F0410F460546002028622846E9681C
:10049000884770B3252805D0D5E901219047286AFF
:1004A000401CF2E7E9682846002688476C28044685
:1004B0000AD0682C08D04C2C35D06A2C31D0742C42
:1004C00031D07A2C2FD016E0E968064628468847B6
:1004D000B042044608D16C2E23D04FF480662846E3
:1004E000E9688847044606E06C2E03D04FF4807616
:1004F00001E01EE04026E4B1A4F14100192802D831
:10050000203446F400663A46214628462E60FFF71E
:1005100027FE60B1012808D0FF1D27F00707083724
:10052000B4E78026DBE70026D9E73F1DAEE720468B
:10053000B2E7286ABDE8F081032A40F2308010F06B
:10054000030C00F0158011F8013BBCF1020F62446E
:1005500098BF11F801CB00F8013B38BF11F8013BFF
:10056000A2F1040298BF00F801CB38BF00F8013BAC
:1005700011F0030300F02580083AC0F0088051F81C
:10058000043B083A51F804CBA0E80810F5E7121D27
:100590005CBF51F8043B40F8043BAFF30080D20746
:1005A00024BF11F8013B11F801CB48BF11F8012B12
:1005B00024BF00F8013B00F801CB48BF00F8012B35
:1005C000704710B5203AC0F00B80B1E81850203ABF
:1005D000A0E81850B1E81850A0E81850BFF4F5AFE3
:1005E0005FEA027C24BFB1E81850A0E8185044BF6D
:1005F00018C918C0BDE810405FEA827C24BF51F8DA
:10060000043B40F8043B08BF7047D20728BF31F8CD
:10061000023B48BF11F8012B28BF20F8023B48BF1E
:1006200000F8012B70474FF0000200B513469446C6
:100630009646203922BFA0E80C50A0E80C50B1F13A
:100640002001BFF4F7AF090728BFA0E80C5048BF4E
:100650000CC05DF804EB890028BF40F8042B08BFEC
:10066000704748BF20F8022B11F0804F18BF00F8E8
:10067000012B70474FF0013C50F8042B51F8043B1C
:100680009A4221D1A2EB0C03934313EACC1317D166
:1006900050F8042B51F8043B9A4215D1A2EB0C03FD
:1006A000934313EACC130BD150F8042B51F8043BBD
:1006B0009A4209D1A2EB0C03934313EACC13DBD08B
:1006C0004FF00000704700BFD01A01BAB1FA81F1B3
:1006D00001F0180122FA01F0CB40C1F12001DBB298
:1006E000C0B2C01A2CFA01F3D11A914311EAC31116
:1006F000E6D1704770477047704700000048704768
:1007000064020020704770477047704738B5044650
:100710000A4600206946AFF30080002808BF38BDB4
:1007200002460099204600F0ABF8012038BD0120B8
:1007300000F078B9F8B5AFF30080054600200C460C
:10074000102000BF0646A819A0420DD932466946BE
:100750000020AFF30080070008BF00F063F90098A5
:10076000A04218BF0546C419FFF7C8FF0560074639
:10077000F01D20F007004619284600F00AF8B442A0
:1007800008BFF8BDA21B31463868BDE8F84000F04C
:1007900077B800210160C0E9011070471020704750
:1007A0002DE9F0470D4699469246044600F124088B
:1007B0000168880604D5E06921F01001216000E09D
:1007C0000120A84201DD471B00E00027A1697A193A
:1007D00002EB0900081AA0612078C00602D4204666
:1007E000AFF30080002608E0D4E901211AF80600E2
:1007F0009047206A401C761C20624E45F4DB20782E
:10080000C0060AD52046AFF3008006E0D4E90121F6
:1008100030209047206A401C2062381EA7F1010753
:10082000F4DC07E0D4E9012118F805009047206ABC
:10083000401C2062281EA5F10105F3DC2046AFF321
:1008400000802078000602D50220BDE8F087012054
:10085000FBE70000074B70B50D467B4400F02FF816
:100860000446284600F03EF810B14FF0FF3070BD4E
:10087000204670BD6B380000004870475C020020C5
:10088000034640688C46002818BF88423CBF034698
:100890004068F8D318681844884207D00CF1030068
:1008A00020F00700001D411A521A0146081D0A6077
:1008B000FFF7FFBC01694A1C02610878704700B568
:1008C0008FB0CDE901310021059105497944CDE989
:1008D000031011466846FFF7D3FD0FB000BD0000BE
:1008E000E5FFFFFF007B00F08000704710B5424835
:1008F0005421FFF798FE41485421FFF794FE4048E9
:100900005421FFF790FE3F493B483C4A3F4B08606B
:100910003D490A603A491960531C0365481C10653B
:10092000012008653B48344A39A1784400F0B6F903
:1009300020B9384878440A3800F05AFA37482F4A24
:1009400035A1784400F0AAF920B9344878440A382F
:1009500000F04EFA32482A4A2FA1784400F09EF95E
:1009600020B92F4878440A3800F042FA4023224840
:10097000DC000021224600F06DF920B125487844C2
:10098000543800F035FA1D4822464023002100F07B
:1009900061F920B121487844543800F029FA184808
:1009A00022461023002100F055F9002806D01C48EB
:1009B0007844BDE81040563800F01ABA10BD10480F
:1009C00070B5006D20F001040B4800F0DDF90B4814
:1009D00000F0DAF90A4800F0D7F909E0206D20F0BC
:1009E0000105204600F0D0F92046FFF762FC2C46B6
:1009F000002CF3D170BD000060010020B401002084
:100A000008020020800000208400002088000020D0
:100A100072000000923B000077000000813B000064
:100A2000713B000010B500F0EBF9BDE8104000F09C
:100A3000DAB970477546FFF71FFFAE4605006946F5
:100A4000534620F00700854618B020B5FFF7F0FBAD
:100A5000BDE820404FF000064FF000074FF00008BF
:100A60004FF0000B21F00701AC46ACE8C009ACE840
:100A7000C009ACE8C009ACE8C0098D4670472DE953
:100A8000F04705460C46C86820F4201040F480006A
:100A9000C860800602D5084600F0B3FAE06841F26B
:100AA00082014FF0FF390140022903D0204600F0B7
:100AB00051FAB5E000F42041B1F5004F0FD1C00369
:100AC00006D56168E06A884200D80846606006E0A2
:100AD0002069E0626060606902F0CAFEA061A068FF
:100AE0000022EEB200280DDAE1688B050AD4C0437B
:100AF000A06041F490302260E0606068411C616059
:100B00000670A5E0E0689046226040F40050E06086
:100B1000206968BB606902F0B1FE012704F1240579
:100B2000A0B1A08910F4407F08D0E069FFF792FBE4
:100B3000206118B1E06840F4006016E0E7612561CB
:100B4000E06820F4407040F480600EE0E069FFF758
:100B500081FB00282061F1D0E06840F4006010F4CF
:100B6000407FE06002D140F48070E0602069606006
:100B7000E06825696FF0010AC1051FD56168E06A68
:100B8000884200D80846411B04D02246284600F07F
:100B9000EBF9F0BBE068010203D5E562C4E9015856
:100BA00054E0691CE1626160E16940F48030491EF3
:100BB000C4E9021030462E70BDE8F087010202D56C
:100BC00000F480320AE06068411C61600670E068F1
:100BD0000A2E40F48030E06006D00022E16A6068AE
:100BE000814203D90B4602E00122F7E70346A789B9
:100BF0005B1B7F0503D4E7699F4200DDE2B18142C0
:100C000000D80146E5620F1AC4E90158002B09DD3E
:100C100000E005E022461946284600F0A5F908B193
:100C20004846C9E747B1A069E5626560C01BA0619D
:100C3000E06840F01000E060E068000208D56168FC
:100C4000A069E562491B08446560A0615046B3E7AE
:100C50003046B1E770B5C468A50713D0650211D45A
:100C6000B2F5807F09D0B2F5007F06D0B2F5806F73
:100C700008D1012300F1240106E05D1E6FF07F46DC
:100C8000B54201D3012070BD0161C361416024F40C
:100C900070611143C160002070BD00002DE9F0417A
:100CA0000C4607461646104600F06EF82078611C88
:100CB00061280AD0722802D077283CD102E00125B1
:100CC000002405E00225042402E0082448F202057D
:100CD00011F8010B2B2806D0622809D011F8010C5D
:100CE00074280AD00BE045F0030544F00204EFE756
:100CF00045F0040544F00104EAE744F010043846E6
:100D0000214602F0C7FD411C15D000213161716000
:100D10004FF40071F560F1617061200704D5304631
:100D20000222002100F09AF8306D40F00100306599
:100D30003046BDE8F0810020FBE72DE9F0410D468B
:100D40000646104C206DC10704D0410804D020F0A5
:100D50000104F7E722460EE05420FFF77BFA070074
:100D60000ED0206D47F0010108435421206538461C
:100D7000FFF759FC3A4629463046BDE8F0418DE779
:100D80000020D6E7600100202DE9F04704464FF02F
:100D900000094FF0FF37C568D4E90486A80707D0DB
:100DA000204600F00BF9304602F056FD002802DA2A
:100DB0003846BDE8F087280502D54046FFF779FAA6
:100DC0004C212046FFF72FFC206D20F0010020650C
:100DD0004846EEE710B50446AFF300802046BDE874
:100DE0001040FFF7D7B9002801D000F031B87047A4
:100DF00010B500F041F9BDE81040FFF7F4BF000066
:100E000010B5012805D0002103A000F01BF9012036
:100E100010BD09A1F8E7000053494752544D454D14
:100E20003A204F7574206F662068656170206D658B
:100E30006D6F7279000000003A2048656170206D86
:100E4000656D6F727920636F72727570746564007E
:100E500001491820ABBEFEE7260002002DE9F04153
:100E6000044616460D464769007B80072ED038465B
:100E700002F004FD50BB3EB3012E02D0022E25D15C
:100E800004E0204600F019F905441DE0384602F060
:100E9000EFFCE168002841F01001E16005DA20462E
:100EA00000F058F80120BDE8F081C9030BD5626855
:100EB000E16A914200D81146A26911442269891A57
:100EC000814200DD08460544002D01DA0220EAE7F0
:100ED000E16A6068E268814206D29103E06203D56C
:100EE00022F4003141F01002A6690027AE4213DC63
:100EF000E16A814201D90B4600E0034603EB060C90
:100F00002369ACEB030CAC4506DD814201D98C466C
:100F100000E084469C4505D1A760276042F0200090
:100F2000A5620DE0AD1BE669AE1B8142A66000D94B
:100F30000846C01A281A20605819606022F0200064
:100F400003490840E060002084F84870ABE70000E7
:100F5000BFCFD7FFC16821F4001141F08001C1600B
:100F600000218160016070472DE9F04781461446F9
:100F70000E464FF0FF383248D5685769054209D010
:100F80003846A16902F0B4FC002811DB2C48C043AC
:100F90000540E5602B4632464946384602F0ACFC37
:100FA000A16920F00042B21A11440028A16103D0C7
:100FB0002046FFF7CFFF4046BDE8F08770B50446F6
:100FC0000569C06A6168884200D80846E16821F472
:100FD0002011E160C90312D5A84208D02246411B66
:100FE0002846FFF7C1FF10B14FF0FF3070BD002061
:100FF000E562C4E90150E06820F48030E060002040
:1010000070BD10B50446C06820F02000E060A16A01
:10101000A06988420DD02046FFF7D0FFE06820F499
:10102000405040F01000E060A06AA0612069E062DA
:10103000606044F24001E0688843E06010BD000059
:101040001000020070B505460C460A2000E06D1C39
:1010500000F02CF835B128780028F8D102E0641CA3
:1010600000F024F814B120780028F8D1BDE87040D1
:101070000A2000F01BB8000010B5014602A0FFF7DF
:10108000E1FF012010BD000053494752545245442E
:101090003A2052656469726563743A2063616E2711
:1010A00074206F70656E3A200000000008B5694634
:1010B0008DF800000320ABBE08BD10B50146C26824
:1010C000900703D0900607D5886A0AE000F016F86A
:1010D00001210160881E10BD8B69486818440B69A6
:1010E000C01A91F848301BB191F84910401A10BD50
:1010F0001103FCD50028FADD401E10BD00487047E2
:101100005C020020FEE7704772B6FEE707490978E7
:1011100051B10649C0F3C6228039C0F30220895C70
:10112000C14001F0010070470020704740070020D7
:101130002DE9F0410A4D05F11806AF6900F0CCF930
:10114000044601463046FFF73DF8B842F5D18442E7
:1011500003D203481030FFF72CF82046BDE8F08199
:101160004007002070B514460D460646FFF7CEFF37
:1011700088B1FFF7DDFF0146B2B2EFF3058008B199
:101180004FF40020104323462A46BDE8704040F04B
:10119000407000F07FB8012070BD00002DE9FC47D1
:1011A00014460D00064601D0802C02D90020BDE86F
:1011B000FC87FFF7ABFF48B1FFF7BAFF8046B1B23B
:1011C000EFF3058020B14FF4002702E00120EEE7A5
:1011D00000270F43A4B14FF000094FF4E026082C7C
:1011E00013D8CDF80090224629466846CDF80490E1
:1011F000FFF7A2F906EA0440384340F0407040E0AF
:1012000000231A46414638463EE02148FEF7C8FF13
:1012100006EA004655F8040B009055F8040B3743D6
:101220000346019047F080704146083C009A00F068
:1012300031F80028BBD04FF60170064310E000BF24
:1012400055F8040B009055F8040B019003464146F5
:101250003046083C009A00F01DF8761C0028A6D005
:10126000082CEDD8CDF80090224629466846CDF8E6
:101270000490FFF761F926F47F4040EA042040F033
:101280000070DDE90023414600F004F88FE700001C
:10129000410700202DE9FF5F8B464FF0805000EAA8
:1012A000DB08400007259A469146410000EA99076D
:1012B00001EA5A062048FEF77CFF014600F03F0293
:1012C0001E48890900EB02144FF4700000EA015136
:1012D0000098084340EA08003843304340F040613A
:1012E00004F10C00FEF776FF41011CD580F00441AB
:1012F00001F000402BF000420243226029F000423E
:10130000024362602AF00042024304F10C00A26032
:10131000FEF771FF48B10848001DFEF74AFF0120A3
:1013200004B0BDE8F09F6D1EC4D103480830FEF73D
:1013300040FF0020F4E7000044070020C002002026
:101340002DE9F0478146FF2901D2FF2A02D3002070
:10135000BDE8F0870024104D20464FF0010A0AFA3C
:1013600000F3564613EA090F0FD00B46B2460AE0C7
:1013700004EBD30603F00708AF5D0AFA08FC47EA5E
:101380000C07AF555B1C9342F2D9401C2034042853
:10139000E5D30120DCE70000C00600202DE9F0477E
:1013A0003C4C88468146002525708021A4F18000B0
:1013B000FFF739F9384B4FF6FF761822304641F2E5
:1013C000210700BF13F8011B80EA01205FF008012C
:1013D0005FEA004C06EA400000D57840491EF7D18C
:1013E000521EEFD12D4A236A0121934201D022627D
:1013F00002E06288824202D06080E16137E0E06909
:10140000401CE061012832D0254B002003EB001185
:10141000CA68560102D522F04062CA60401C4028CA
:10142000F4D3E06901282BD000F05CF80646DEB169
:10143000FE2200214846FFF783FFEF2211460F20CE
:10144000FFF77EFFFE2211460420FFF779FFFFF72A
:101450006FFE014600231348E269FFF71BFFB8F156
:10146000000F01D000F022F83046BDE8F08765702B
:101470006560A5604FF480610948E560FFF7D3F827
:1014800000F030F8061E00D00748C4E905052561C4
:10149000CDE7000040070020A84400086B27A5E125
:1014A000C002002000FF00030090D003084810B5E0
:1014B000017809B1012010BD01210170FFF738FE4C
:1014C000014600231A460348FFF7E4FEF2E7000056
:1014D0004007002001FF00030148406870470000FA
:1014E000001000E00548016841F080710160044887
:1014F000016841F00101016001207047FCED00E04E
:10150000001000E010B590F821100022022905D04B
:101510000421816380F82020012010BD01680B6840
:1015200023F00E030B6001680B6823F001030B60CE
:1015300090F84030C46B012101FA03F3636080F836
:10154000211080F82020104610BD000010B590F842
:1015500021100024022903D00421816301243DE0ED
:1015600001680A6822F00E020A6001680A6822F027
:1015700001020A601A4A0168914201D1012121E069
:10158000174A1432914201D110211BE0144A28322B
:10159000914201D1891515E0114A3C32914201D1A5
:1015A00089140FE00E4A5032914202D14FF480313B
:1015B00008E00B4A6432914202D14FF4801101E0FD
:1015C0004FF08071064A083A5160012180F82110DD
:1015D000002180F82010416B01B18847204610BDE2
:1015E0000800024070B5044600F004F90546601C8E
:1015F00002D004480078044400F0FCF8401BA042EC
:10160000FAD370BD640000202DE9F84FDFF8B891DF
:10161000002409F1040A0AF1040B23460F270BF1F9
:10162000040EC9E00125A5402A40AA427DD1674E9B
:10163000D1F804C0ACEB0608B44532D014DCBCF1E0
:10164000030F3AD009DCBCF1000F2AD0BCF1010F26
:101650001CD0BCF1020F31D11DE0BCF1110F17D02D
:10166000BCF1120F2AD119E0B8F5881F19D006DC99
:10167000B8F5803F15D0B8F5801F1FD111E0B8F53F
:10168000001F0ED0B8F5041F18D10AE0CB6815E092
:10169000CB681B1D12E0CB6808330FE0CB680C331E
:1016A0000CE08B682BB1012B4FF0080303D0456190
:1016B00004E0042302E0056100E00023FF2A01D8D2
:1016C000064601E000F104064FEA840501D9A5F1C0
:1016D0002005D6F8008007FA05FC28EA0C0803FA72
:1016E00005F548EA0508C6F800804D68ED0062D5AA
:1016F000374DAE6946F00106AE61AD6924F00306D0
:1017000005F001050095334D06EB050CDCF808509B
:10171000A607360F07FA06F825EA0805DFF8B880AD
:10172000404503D14FF0000817E044E0DFF8AC80FB
:10173000404502D14FF001080FE0DFF8A48040459A
:1017400002D14FF0020808E0DFF89880404502D14E
:101750004FF0030801E04FF0040808FA06F848EAE1
:101760000508CCF808804D68D9F80060ED034D46B7
:1017700001D5164300E096432E604D68DAF800600C
:10178000AD03554601D5164300E096432E604D68E3
:10179000DBF80060ED025D4601D5164300E096439C
:1017A0002E604D68DEF80060AD02754601D5164327
:1017B00000E096432E60641C0D682A46E5407FF4E5
:1017C00031AFBDE8F88F00000004014000001110A7
:1017D000001002400000014000080140000C0140E0
:1017E00000100140001401400AB101617047090472
:1017F000FBE700000148806870470000640000209B
:1018000002488168027811448160704764000020BA
:10181000074810B5016841F010010160032000F095
:1018200085F80F2000F006F800F024F8002010BD25
:101830000020024070B50D4D04464FF47A712878AF
:10184000B1FBF0F00A490968B1FBF0F000F0E3FDEC
:1018500048B9102C07D200222146501E00F046F84D
:1018600000206C6070BD012070BD0000640000208D
:10187000700000200C4808B5816941F001018161C8
:10188000816901F001010091C16941F08051C1619C
:10189000C06900F0805000900448416821F0E06188
:1018A00041F00071416008BD00100240000001409D
:1018B00000280DDB00F01F0201219140400980004B
:1018C00000F1E020C0F88011BFF34F8FBFF36F8F9E
:1018D0007047002809DB00F01F02012191404009F8
:1018E000800000F1E020C0F800117047F0B40E4B0A
:1018F0001B680C46C3F30223C3F10705042D00D96E
:101900000425191D072901D2002300E0DB1E012652
:1019100006FA05F1491E214099409E40761E164068
:101920003143F0BC01F0CCBE0CED00E0064900F004
:10193000070208684FF6FF03184040EA0220034AF6
:1019400010430860704700000CED00E00000FA054D
:101950002DE9F0470F46050061D0434E306800F096
:101960000700B84209D2306820F0070038433060E1
:10197000306800F00700B84251D128683B4C81071D
:1019800012D5400703D5606840F4E06060602878B5
:10199000000703D5606840F4605060606068A96823
:1019A00020F0F000084360602878C00728D06868FD
:1019B000012810D02168022810D0890700292EDACA
:1019C000616821F0030101436160FFF713FF804666
:1019D00041F288390DE021688903EFE78901EDE7DD
:1019E000FFF708FFA0EB0801494502D90320BDE835
:1019F000F0876068696800F00C00B0EB810FEFD1F0
:101A0000306800F00700B8420BD9306820F00700BA
:101A100038433060306800F00700B84201D0012040
:101A2000E5E72878400705D56068E96820F4E060BC
:101A3000084360602878000706D56068296920F4AB
:101A4000605040EAC100606000F038F86168084A00
:101A5000C1F30311515CC84006490860064800689C
:101A6000FFF7E8FE0020C2E700200240001002401D
:101A700090440008700000206800002004480549D8
:101A800000684968044AC1F30221515CC8407047AC
:101A90007000002000100240A044000804480549DE
:101AA00000684968044AC1F3C221515CC8407047CC
:101AB0007000002000100240A044000813A185B06F
:101AC0000FC98DE80F0015A0154A006804905168F1
:101AD00001F00C00042804D0082804D0114805B0F7
:101AE00070471148FBE7C1F38343C9031DF80300A6
:101AF00009D5516804AAC1F34041515C0A4A5043D8
:101B0000B0FBF1F0EBE709494843E8E702030405BD
:101B1000060708090A0B0C0D0E0F10100102000039
:101B20000010024000127A000024F40000093D0079
:101B30002DE9F84F040070D02078C04DC00749D07F
:101B40006868C0F38100012807D06868C0F381008D
:101B5000022809D16868C00306D52868800339D5F2
:101B600060680028E7D035E06068B0F5803F0BD0B2
:101B700010B1B0F5A02F11D0286820F48030286073
:101B8000286820F4802002E0286840F48030286033
:101B9000606890B1FFF72EFE06460AE0286840F420
:101BA00080202860F0E700BFFFF724FE801B642838
:101BB00073D828688003F7D50CE0FFF71BFE0646B4
:101BC00005E000BFFFF716FE801B6428F0D82868E8
:101BD0008003F7D420789A4E80074FF001094FF028
:101BE000000839D5686810F00C0F07D06868C0F39A
:101BF0008100022809D16868C00306D428688007DC
:101C000014D52069012808D110E02069B0B1C6F8C8
:101C10000090FFF7EFFD074605E00AE1FFF7EAFD58
:101C2000C01B0228C4D828688007F7D528686169D6
:101C300020F0F80040EAC10028600DE0C6F80080FE
:101C4000FFF7D8FD074604E0FFF7D4FDC01B0228CC
:101C500023D828688007F7D4207800072CD5794846
:101C6000A169D9B1C0F80090FFF7C4FD074604E0B0
:101C7000FFF7C0FDC01B02280FD8686A8007F7D5A0
:101C800071484FF4FA510068B0FBF1F0009000BFCA
:101C90000098411E0091FAD20EE080E0C0F800806A
:101CA000FFF7A8FD074604E0FFF7A4FDC01B0228CC
:101CB00075D8686A8007F7D42078400760D5E8694E
:101CC0000027C00008D4E86940F08050E861E86966
:101CD000012700F0805000905C480168C90513D4CA
:101CE0000168834641F480710160FFF783FD8246FD
:101CF00006E000BFFFF77EFDA0EB0A0064284ED887
:101D0000DBF80000C005F5D5E06801280AD008B16D
:101D1000052813D0286A20F001002862286A20F0E4
:101D2000040002E0286A40F001002862E06841F205
:101D3000883B98B1FFF75EFD82460BE0286A40F0D1
:101D400004002862EEE700BFFFF754FDA0EB0A0194
:101D500059455AD8286A8007F6D50CE0FFF74AFDA6
:101D6000824605E0FFF746FDA0EB0A0159454CD835
:101D7000286A8007F6D41FB1E86920F08050E86136
:101D8000E06988B36968C1F38101022944D002285F
:101D9000C6F8608004D0FFF72DFD044638E034E03B
:101DA000FFF728FD074604E0FFF724FDC01B0228CB
:101DB0002BD828688001F7D4206AB0F5803F05D180
:101DC0006868A16820F4003008436860D4E908011D
:101DD0000843696821F4741108436860C6F860908C
:101DE000FFF708FD044606E025E000BFFFF702FD0F
:101DF000001B022809D828688001F7D51BE000BF26
:101E0000FFF7F8FC001B022802D90320BDE8F88F79
:101E100028688001F4D40EE00128F7D06868226AAF
:101E200000F48031914204D1616A00F4701088425C
:101E300001D00120EAE70020E8E70000001002409E
:101E400000004242800442427000002000700040C6
:101E500070B5040009D0606A002540B12561656154
:101E6000A56294F8510040B10CE0012070BD60689B
:101E7000B0F5827FF4D0E561F2E784F85050204657
:101E800000F040F8022084F851002068016821F039
:101E900040010160A088218900F4827001F40441AE
:101EA0000843A18901F400610843217C01F002018B
:101EB0000843217D01F001010843218B01F40071E9
:101EC0000843217F01F03801084394F8201001F005
:101ED00080010843218D01F4005108432168086006
:101EE000A069042101EA1040216848602068C169A6
:101EF00021F40061C1616565012084F85100002072
:101F000070BD000030B585B00024009401940294A7
:101F1000039400681449884223D11448816941F42C
:101F200080518161816901F480510491816941F09E
:101F30000401816180690E4D00F004000490A0202E
:101F40000090022001900320039069462846FFF785
:101F50005BFB4020CDE90004694628460294FFF768
:101F600053FB05B030BD00000030014000100240BE
:101F7000000801402DE9F84F0446406800259846C6
:101F800016460F464FF0040BB0F5827F01D1A068D2
:101F900088B194F85000012818D0012084F850002E
:101FA000FFF728FC814694F851004FF0000A012801
:101FB0000ED0022582E084F851B013460A4620462E
:101FC000CDF8008000F036F9BDE8F88F0220FBE77D
:101FD000002F72D0002E70D084F851B0C4F854A0F5
:101FE000A763A687E687C4F830A0A4F834A0A4F8B5
:101FF00036A0C4F840A0C4F844A0A068B0F5004FD3
:1020000009D12068016821F0400101602068016861
:1020100021F48041016020680168490603D4016809
:1020200041F040010160E068D8B139E02068816882
:10203000C90709D0007BA16B0870A06B401CA0638E
:10204000E08F401EE0870CE0FFF7D4FBA0EB090116
:10205000414503D3B8F1FF3F03D036E0B8F1000F9C
:1020600033D0E08F0028E1D11DE020688168C907E6
:1020700009D0C068A16B0880A06B801CA063E08FB2
:10208000401EE0870CE0FFF7B5FBA0EB09014145DE
:1020900003D3B8F1FF3F03D017E0B8F1000F14D01D
:1020A000E08F0028E1D14A464146204600F062FC1C
:1020B00008B120206065606D00B10125012084F821
:1020C000510084F850A028467EE70325F6E72DE965
:1020D000F84F044690F8500000271D4616468946E2
:1020E00001280DD04FF0010B84F850B0FFF782FBB0
:1020F000804694F85100BA46012804D0022793E0A4
:102100000220BDE8F88FB9F1000F73D0002E71D016
:10211000032084F85100C4F854A0C4F83090A68677
:10212000E686C4F838A0A4F83CA0A4F83EA0C4F801
:1021300044A0C4F840A0A068B0F5004F09D12068C1
:10214000016821F0400101602068016841F480418C
:10215000016020680168490603D4016841F040012C
:102160000160E068B0F5006F606803D030B3012E05
:1021700024D041E008B1012E1CD1206B21680088D9
:10218000C86006E020688168890709D5216B098845
:10219000C160206B801C2063E08E401EE08609E059
:1021A000FFF728FBA0EB0800A84202D3681C01D06F
:1021B00031E07DB3E08E0028E4D120E0206B21687F
:1021C0000078087306E020688168890709D5216BCB
:1021D00009780173206B401C2063E08E401EE0866E
:1021E0000AE0FFF707FBA0EB0800A84203D3681C36
:1021F00002D010E017E06DB1E08E0028E3D1424636
:102200002946204600F0E4FB08B120206065A06864
:1022100018B106E0FFE7032706E02068C168806880
:102220000090606D00B1012784F851B084F850A08F
:10223000384666E72DE9F84F044690F8500000272D
:102240000A9E1D4692468B464FF0010901280ED08A
:10225000012084F85000FFF7CDFA804694F8510031
:10226000616801280CD0B1F5827F07D102E002201D
:10227000BDE8F88FA16809B9042801D00227C2E09F
:10228000BBF1000F27D0BAF1000F24D01DB394F892
:102290005100042802D0052084F851000020606518
:1022A000C4F838A0E587A587C4F830B0E586A586D0
:1022B0002064606420680168490603D4016841F025
:1022C00040010160E068B0F5006F606805D0E8B3D8
:1022D000012D46D07FE0012795E008B1012D39D1CD
:1022E000206B21680088C860206B801C2063E08E12
:1022F000401EE0862EE02068816889070FD5E18EB8
:1023000069B1B9F1010F0AD1216B0988C160206B55
:10231000801C2063E08E401EE0864FF0000920689C
:102320008168C9070CD0E18F51B1C068A16B0880EA
:10233000A06B801CA063E08F401EE0874FF0010976
:10234000FFF758FAA0EB0800B04200E009E001D323
:10235000701C50D1E08E0028CDD1E08F0028CAD16A
:102360003FE0206B216800780873206B401C2063DD
:10237000E08E401EE0862EE02068816889070FD538
:10238000E18E69B1B9F1010F0AD1216B09780173AE
:10239000206B401C2063E08E401EE0864FF0000959
:1023A00020688168C9070CD0E18F51B1C068A16B6A
:1023B0000870A06B401CA063E08F401EE0874FF0C8
:1023C0000109FFF717FAA0EB0800B04202D3701C16
:1023D00001D010E07EB1E08E0028CDD1E08F002842
:1023E000CAD142463146204600F0F2FA28B1012710
:1023F0002020606507E0032705E0A06818B9206881
:10240000C16880680090012084F85100002084F8A1
:10241000500038462CE710B5401EB0F1807F01D344
:10242000012010BD4FF0E02460610F21601701F022
:1024300047F90020A06107202061002010BD7047EF
:1024400070470000F8B5026804461068D168536907
:1024500010F00F0F4FF0000553D003F0010601F408
:10246000907737435FD0C20705D0CA0503D5226CE9
:1024700042F001022264420705D5DA0703D0226C3C
:1024800042F002022264820705D5DA0703D0226CEB
:1024900042F004022264020707D501F02002324311
:1024A00003D0226C42F008022264226C002A34D04D
:1024B000800604D5880602D5204600F047FB206838
:1024C0004069216CC0F38010090700D430B3204666
:1024D00000F024FB2068416949061BD5416921F0C1
:1024E00040014161A06BA8B158494163A06BFFF75F
:1024F0002DF8002811D0A06B416B01B0BDE8F04071
:10250000084783060FD58B060DD52046BDE8F84059
:1025100000F01CBB2046FFF793FFF8BD2046FFF7F5
:102520008FFF2564F8BD266B2023012E52D1C606ED
:1025300050D5CE064ED510685068009050694006C0
:102540002AD5A16B086840680004000CEAD0A68D6B
:102550008642E7D9E0858869202818D0D06820F421
:102560008070D0602068416921F0010141612068DC
:10257000416921F04001416184F83E3025632068C3
:10258000C16821F01001C160A06BFEF7BBFFA08DF8
:10259000E18D401A81B219E0A08DE18D401A81B21F
:1025A000E08D0028BED00029BCD0D06820F4907007
:1025B000D0602068426922F00102426184F83E3016
:1025C00025632068C26822F01002C2602046FFF72F
:1025D00036FFF8BD05062BD50D0629D594F83D002C
:1025E0002128F6D1A068B0F5805F01D12069B0B193
:1025F000206A411C2162216800784860E08C401EFE
:102600000004000CE084E4D12068C16821F080015E
:10261000C1602068C16841F04001C160F8BD206A16
:102620000088C0F308005060206A801C2062E5E743
:102630004006F3D54806F1D5D168204621F0400187
:10264000D16084F83D3000F0F0F8F8BD0D2B0008A3
:1026500070B5040004D094F83D00002510B106E0E8
:10266000012070BD84F83C50204600F023F824205F
:1026700084F83D002068C16821F40051C160204603
:1026800000F0C0FA2068016921F4904101612068DE
:10269000416921F02A0141612068C16841F400517B
:1026A000C1602564202084F83D0084F83E000020AD
:1026B00070BD000030B585B00024009401940294F0
:1026C00003940068184988422CD11848816941F464
:1026D00080418161816901F480410491816941F007
:1026E000040181618069124D00F0040004904FF4F0
:1026F0000070009002200190032003906946284654
:10270000FEF782FF2815CDE90004694628460294A9
:10271000FEF77AFF002211462520FFF7E7F8252073
:10272000FFF7D7F805B030BD003801400010024077
:102730000008014090F83E30202B0ED159B152B123
:1027400090F83C30012B08D0012380F83C30002366
:10275000036300F0B3BA0120704702207047000005
:102760000349884202D103490120087070470000E4
:102770001C010020600000202DE9F843044690F879
:102780003D001F4616460D4620284CD1C5B1BEB1AE
:1027900094F83C00012846D0012084F83C004FF01A
:1027A0000008C4F84080212084F83D00FFF722F89B
:1027B000A6848146E684A068B0F5805F03D004E07B
:1027C0000120BDE8F883206928B12E465FF000059E
:1027D00084F83C800EE00026FAE78021204600F0D5
:1027E00088FAA0B9AEB116F8010B21684860E08CF8
:1027F000401EE084E08C4B464FF00002009700281A
:10280000EBD14FF04001204600F073FA30B10320C5
:10281000D7E735F8020BC0F30800E6E7202084F87C
:102820003D000020CDE70220CBE77047FEE7000027
:102830002DE9F04385B000242548009401940294CA
:102840000394816941F020018161816901F02001D7
:102850000491816941F004018161816901F0040101
:102860000491816941F0080181618069DFF8648029
:1028700000F008000490002210214046FEF7B4FF4B
:10288000DFF854904FF40057002239464846FEF7CF
:10289000ABFF102001250226CDE90005CDE9024657
:1028A00069464046FEF7B0FE0C480095CDE90104AC
:1028B00069464846FEF7A8FE00970396CDE9015405
:1028C00069464846FEF7A0FE05B0BDE8F08300006B
:1028D0000010024000080140000C014000001110EF
:1028E000104810B50E4901604FF48271416000211B
:1028F0008160C1604FF400720161C0E905121822C5
:10290000C0E90721416281620A21C162FFF7A0FA92
:10291000002803D0BDE81040FEF7F6BB10BD000054
:1029200000300140C40000200C4810B50A49016085
:102930004FF4E1314160002181600C22C160C0E9A7
:1029400004128161C161FFF783FE002803D0BDE856
:102950001040FEF7D9BB10BD003801401C0100201B
:10296000FEE7FEE77047026892B222F038020A439F
:1029700002607047F8B5044640684FF4827398428D
:1029800017D1A0684FF48065B0F5004F01D0A84280
:102990000FD12068066826F04006066060689842FD
:1029A00007D1A068A84204D100920B460022012161
:1029B00003E000920B4600228021204600F018F828
:1029C000002804D0606D40F0200060650320F8BD51
:1029D00038B50B46009204460022802100F008F82A
:1029E000002804D0606D40F020006065032038BDF1
:1029F0002DE9F8431E46914688460446089DFEF799
:102A0000F9FE401B351AFEF7F5FE0746254800681B
:102A1000C0F3CB30684338E0701C37D0FEF7EAFED5
:102A2000C01BA84203D215B1009860B32CE0206807
:102A3000416821F0E00141606068B0F5827F0BD110
:102A4000A068B0F5004F02D0B0F5806F04D12068C7
:102A5000016821F040010160A06AB0F5005F09D172
:102A60002068016821F4005101602068016841F488
:102A700000510160012084F85100002084F85000CA
:102A80000320BDE8F8830025401E0090206881687F
:102A900038EA010004D000214945BDD10020F0E70B
:102AA0000121F9E7700000207047FEF7A9BE30B59C
:102AB0008FB028216846FDF7B6FD14210AA8FDF75E
:102AC000B2FD01210804CDE9001000240294022582
:102AD0000491CDE90750C00009906846FFF728F837
:102AE00008B172B6FEE70F20CDE90A054FF4806009
:102AF000CDE90C4002210AA80E94FEF729FF002818
:102B000001D072B6FEE70FB030BD704710B5406A15
:102B10000021C185C184FFF793FC10BD0168CA681C
:102B200022F49072CA6001684A6922F001024A6187
:102B3000016B012904D10168CA6822F01002CA6041
:102B4000202180F83E1000210163704708B590F8FD
:102B50003E10222901D0022008BD82684FF4805324
:102B60009A4201D1016921B1816A9A421BD04AB1CE
:102B70000AE00268816A5268C2F308020A80816A28
:102B8000891C08E0026972B10268526802F07F0293
:102B90000A70816A491C8162C18D491E0904090CB1
:102BA000C18503D019E002685268F1E70168CA687C
:102BB00022F02002CA600168CA6822F48072CA60EA
:102BC00001684A6922F001024A61202180F83E1022
:102BD000016B012903D0FFF7C3FD002008BD0021D0
:102BE00001630168CA6822F01002CA6001680A68BD
:102BF000D20602D50A6849680091818DFFF71FFC53
:102C0000EBE7000070B5044600680169E26821F452
:102C10004051114301612169A0680843616908437B
:102C20002168CA6841F20C639A430243CA60206873
:102C30004169A26921F44071114341611E49206834
:102C4000884202D1FEF72AFF01E0FEF717FF00EBF2
:102C5000C00101EB0012606864218000B2FBF0F358
:102C6000B3FBF1F36FF018067343B2FBF0F5B2FB60
:102C7000F0F605EB8305322303EB0515B5FBF1F503
:102C8000B6FBF1F605F0F00505EB0615B2FBF0F624
:102C9000B2FBF0F0B0FBF1F06FF01802504306EB1E
:102CA000800003EB0010B0FBF1F0216800F00F0092
:102CB0002844886070BD0000003801408162828530
:102CC000C28500210164222280F83E2080F83C1059
:102CD0000168CA6842F48072CA6001684A6942F0B9
:102CE00001024A610068C16841F02001C160002012
:102CF00070472DE9F041984617460E460446069D5A
:102D00001DE0681C1BD02DB1FEF774FDA0EB080080
:102D1000A84214D92068C16821F4D071C16020682C
:102D2000416921F001014161202084F83D0084F8CF
:102D30003E00002084F83C000320BDE8F0812068BC
:102D4000006836EA000004D00020B842D9D0002044
:102D5000F3E70120F9E700000148FFF773BB00002B
:102D60001C01002010B5002001F088F8401C01D0A3
:102D7000002010BD012010BD70B504460120E07197
:102D800020780D4631F8100000F08CFC0022032062
:102D900008E000BF35F8121000EB4206E368521C51
:102DA000D2B2995361789142F4D870BD70B504469F
:102DB0004069FDF77EFA206AFDF77BFA606AFDF74D
:102DC00078FAA06AFDF775FA002505E050F82500AD
:102DD000FDF76FFA6D1CEDB26078A842E06AF5D895
:102DE000BDE87040FDF765BA70B50446C078E1688B
:102DF0000870E16820784870E179002039B1217AC3
:102E000029B1E17861722072E068817031E0E0718F
:102E100001212172E1688870002127E0206A01EB1E
:102E2000810500EBC100ED1CD0E90023E0682844D7
:102E300001F082FA606A00EBC100D0E900236678F5
:102E4000E06806EB86063044284401F075FAA06A73
:102E5000637850F82120E06803EB830300EB430024
:102E60002844002301F068FA491CC9B260788842FE
:102E7000D4D8A1780022E06800F0CCFB48B900F07B
:102E80002BFAC4E9060181F40071084301D0002047
:102E900070BD012070BD30B50024234618E000222B
:102EA00011E093420DD005789D4201D1856A02E080
:102EB000C56A55F8235055F8225041F82450641C37
:102EC000E4B2521CD2B245789542EAD85B1CDBB220
:102ED00042789A42E3D830BD2DE9F74F0D46C1EB59
:102EE0000510C01CC7B2CC008EB02046FDF7B2F969
:102EF00083462046FDF7AEF982462046FDF7AAF943
:102F00008146A8000C90FDF7A5F980460C98FDF7C6
:102F1000A1F90646002421E00BEBC4010020C1E921
:102F200000000AEBC402C2E9000009EBC402C2E9D6
:102F3000000048F824000C98FDF78CF946F82400AE
:102F40000020014606E000BF56F8242042F8201079
:102F5000401CC0B2A842F7D3641CE4B2AC42DBD33D
:102F60003846FDF777F904460020014602E0215477
:102F7000401CC0B2B842FAD3302213496846FDF76C
:102F800020FB10988DF800008DF801508DF802702C
:102F90008DF804000394CDF814B0CDE908A9CDE96B
:102FA0000A86302269460E98FDF70BFB4EF660202C
:102FB00000F012FB18B9FFF7D5FE002800D0012061
:102FC00011B0BDE8F08F0000604400082DE9F04129
:102FD0000446002501274079022620B1012817D098
:102FE000022827D121E0204600F03CF810B3012848
:102FF00019D0022809D16D1C6078EDB2A84201D227
:1030000066712DE0FFF7AEFE40BB002FEBD111E063
:10301000204600F027F8012805D0A079022809D31E
:103020000020A0710220BDE8F0812046FFF7DCFE01
:103030000128F8D0E078401CE07020796178401CCD
:10304000B0FBF1F201FB1200C0B22071217888427E
:10305000D6D001206071FFF785FE08B10120E2E7BC
:103060000020E0E72DE9FE4F04468178C06800F0BB
:10307000E9FA4FF0010B50B1012817D0022845D1D1
:103080002279218A0BFA02F0814321820DE0E06867
:10309000E2780178914203D1427823799A420AD0AA
:1030A00062792AB1A079401CA0710220BDE8FE8F90
:1030B000E170417821718178627A91420DD0E17995
:1030C00011B184F808B008E02178032202EB410135
:1030D000405A00F0E7FAE078607200F0E3F8024648
:1030E00081F40073184311D0E0684578606900EB03
:1030F000C500D0E90067D4E90630B6EB030C77EBE6
:10310000000C05D29B1B60EB070007E00120CDE718
:103110009B1B60EB07001B1C40F58070666A06EB8A
:10312000C506C6E90030606900EBC500C0E90021B2
:103130002078E16800EB8000C01C084401F094F89E
:103140000E4607466178E06801EB81010144207872
:1031500000EB8000C01C084401F086F881468A46D6
:10316000002311E0E16800EB800001EB400103EB7C
:103170008300C01C084401F077F8E16A51F825107B
:1031800041F823005B1CDBB260789842EAD8206AE1
:1031900000EBC500D0E900C3606A9E4600EBC501A4
:1031A000D1E900081CEB0002029043EB080317EB87
:1031B000090046EB0A0112184B41CDE90023ACFB94
:1031C00007200EFB07000CFB06010298A0FB097C00
:1031D00008FB09C300FB0A33D01B61EB0301DDE9E7
:1031E0000023FDF78DF8A16A41F825006069D4E954
:1031F000062100EBC500D0E90030D61A71EB0006BD
:1032000003D29A1A60EB010005E09A1A60EB010004
:10321000121C40F58070216A01EBC501C1E9002054
:103220002279218A0BFA02F00143218200203DE736
:1032300070B504464EF6602000F0CEF978BB002150
:10324000E17021716171A1712182084620E06569F8
:10325000002205EBC005C5E90022256A05EBC00583
:10326000C5E90022656A05EBC005C5E90022A26A2E
:1032700042F82010002206E0E36A53F8203043F8B9
:103280002210521CD2B263789342F5D8401CC0B2CF
:1032900062788242DBD8FFF765FD002800D001206C
:1032A00070BD00001CB50B4C05E0204203D000208F
:1032B0004FF400711CBD00210F2000F08EFD410570
:1032C000F3D50020CDE90000684600F0CBFDDDE934
:1032D00000011CBD009005241CB50B4C05E02042EC
:1032E00003D000204FF400711CBD00210F2000F01E
:1032F00074FD0106F3D50020CDE90000684600F01A
:10330000B7FDDDE900011CBD0090052410B5094C96
:1033100004F10800A16B091DFFF72EFDA16B04202D
:1033200088700320207094F8440040F0100084F866
:10333000440010BD180000200148C06B7047000019
:10334000180000200248B0F84200801C80B270478C
:10335000180000200148806B704700001800002012
:103360000248B0F84000801C80B27047180000206E
:1033700010B5204C94F84400400702D5A06BFCF730
:1033800098FFE06B80788100401E4143083188B28D
:10339000A4F840000A21A4F84210801C3834FCF73D
:1033A00059FF206061688978017060682168C07881
:1033B0004870208954F80C1B801C888014F844093C
:1033C000000701D5012000E00320A16B887094F86C
:1033D0004400410703D5E06BFCF76BFF03E040F0CE
:1033E000040084F84400B4F84200801CFCF732FF6B
:1033F000E06310BD1800002070B5164C04F10805FC
:1034000094F84400400702D52846FFF7CFFCE06B54
:10341000C27881780120FDF7A5FEE06BC278817843
:103420002846FFF759FD01280CD00220207094F89F
:10343000440040F0100000BF84F84400BDE8704034
:10344000FFF796BF0320207094F8440040F0080076
:10345000F2E7000018000020024890F8440000F055
:10346000020070471800002010B5114C94F8440079
:10347000C00701D000F078F800F04CF8B4F8401024
:10348000A06B00F06BFA94F84400010705D520F01A
:10349000080084F84400012010BDC10605D520F0C5
:1034A000100084F84400022010BD002010BD000070
:1034B0001800002070B516480546FFF787FD144C2C
:1034C0000100A4F108040ED00320012901D0022933
:1034D00008D1A26B917094F8441041F0080184F86F
:1034E0004410207070BD54F8381F00208870216887
:1034F00034F8200CC8802168607BC8702168284699
:103500000831FFF7C8FC607B401C607370BD000091
:103510002000002010B50E4C207860B101280ED09C
:10352000022810D0032805D100F044F800B1012092
:10353000A16B887010BDBDE81040FFF75DBFBDE80E
:103540001040FFF7E3BEBDE81040FFF7B3BF000037
:1035500018000020034810F8441F41F001010170D9
:10356000704700001800002010B5114C94F844007A
:1035700020F0010084F84400B4F84210E06B00F041
:103580000DFA70B194F8440020F0020084F8440071
:10359000E06B007848B1012807D0022806D103204B
:1035A00003E014F8440F40F00200207010BD00004A
:1035B0001800002010B50748FFF73AFE0549083902
:1035C000012803D002200870002010BD03200870DD
:1035D000012010BD200000203EB50D4A044607CA58
:1035E0008DE8070000F07AFE00F09EFE012000F05A
:1035F0002FFB401C09D0684600F0F2F9A0B200F0A1
:103600006BFC00F089FE00203EBD01203EBD0000A5
:10361000A443000870B503468D1C1446A8B20022CE
:10362000194600F032FD0022A8B2114600F03EFD1E
:103630000CB1022000E0002000F0A4FC002800D023
:10364000012070BD70B50C460646154D0BE02842B2
:1036500011D1800307D54FF4003200210F2000F074
:10366000DEFC022070BD00210F2000F0B6FB4104FB
:10367000EDD5800401D4012070BD4FF480452A4669
:1036800000210F2000F0CBFCA1B20022304600F058
:10369000E0FB2A4600210F2000F0C1FC002070BD95
:1036A0000090052410B50446400800F00EFC04F01C
:1036B000010000EB5400BDE8104000F031BCFEE713
:1036C0000907090E002804DB00F1E02080F800144F
:1036D000704700F00F0000F1E02080F8141D7047E3
:1036E00010B5002202212C2000F0A8FC0222BDE827
:1036F000104011462C2000F0A1BC10B504466D22EC
:1037000040F606012E2000F099FC41F6060114B1A6
:1037100040F2076201E041F20762BDE810402E204E
:1037200000F070BC10B5002000F007F80022042162
:10373000BDE81040362000F065BC38B504466B4645
:1037400002220021362000F067FB0F2C2DD2DFE88B
:1037500004F01008162C2C2C2C1E3A2C2C454A4F09
:10376000560000208DF800009DF8010000F0FE00DA
:1037700019E09DF8000000F0FC00401C04E09DF8FA
:10378000000000F0FC00801C8DF800000DE09DF8AA
:10379000000000F0B30040F048008DF800009DF8F4
:1037A000010040F080008DF801006B4601220021ED
:1037B000362000F04BFC0122114636200DF10103AA
:1037C00000F044FC38BD9DF8000000F0B3008DF817
:1037D00000009DF8010000F07F00E4E79DF8010083
:1037E00040F00200DFE79DF8010000F0FD00DAE79D
:1037F0009DF8000000F0CF0040F02000C4E7012059
:103800008DF800000320CEE710B50E20FFF795FFDE
:103810004FF4004206212D2000F0F4FB012000F0BF
:10382000C9F8BDE810400120FFF787BF10B5024678
:1038300004212D2000F0E6FB032206212D2000F0BC
:10384000FDFB002206212D2000F0F8FB0A21BDE837
:1038500010402D2000F0C1BA6FF40041401804D090
:10386000012803D0022801D00814704700207047B7
:103870006FF40041401800D0002070476FF4004101
:10388000401805D0012802D0022801D0002070473E
:103890000120704770B504004FF0FF3511D020783B
:1038A0003A280ED10CA12046FCF7E4FE58B10CA139
:1038B0002046FCF7DFFE48B10BA12046FCF7DAFEFC
:1038C00038B1284670BD48F2010070BD48F20200D0
:1038D00070BD48F2030070BD3A535444494E000095
:1038E0003A5354444F5554003A53544445525200AD
:1038F0004FF0FF30704700002DE9F0470D466FF4A0
:103900000041411814464FF0FF3020D0012902D069
:1039100002291CD11AE0CCB10E4FDFF83C904FF0D9
:1039200000083E1F15F8010B3268082A0CD2B85463
:10393000521C3260082A01D00A2805D105494846A0
:10394000FDF72CFCC6F80080641EEBD10020BDE81A
:10395000F08700007800002000FE020030B50C4621
:10396000054600F002F8285330BD70B505464FF605
:10397000FF7000224AF201040DE0AB5C58400023C6
:10398000C6074FEA500000D060405B1CDBB2082B3A
:10399000F6D3521C92B28A42EFD370BD30B50C46BA
:1039A0000546FFF7E2FF295B884201D1012030BDC7
:1039B000002030BDFDF716BE002802D00620FDF71E
:1039C00088BF7047054810B5006810F0010402D0A8
:1039D0000620FDF76DFF204610BD000014040140D5
:1039E0002DE9F05F04460578407977494FF00009EA
:1039F000C84631F810706078401EC6B2042D76D0EB
:103A0000072D74D00020714A8246E3791068002B9C
:103A100001696ED021F480010161217A817201690E
:103A2000934621F440320261217A4FF4403303EA95
:103A300001410A4302610021042000F0F0FA3A46F5
:103A400042F604012E2000F0DDFA3046FFF755FE65
:103A50005F4F6049785D51F8202007212B2000F04E
:103A6000DEFA785D5C490A5C0B212B2000F0E6FA57
:103A70005A49282011F80A200B2100F0DFFA785D5E
:103A8000574951F820200C21282000F0C8FAE0798D
:103A9000544901EB8000A17930F811200221272040
:103AA00000F0B0FA5048042130F81620272000F02A
:103AB000A9FAE07910B3A078042825D020220621A5
:103AC000272000F09FFA28222621272000F0B6FAAE
:103AD0004648E17800EB061050F821200821272005
:103AE00000F09DFA6089B0B118E000E001E001202B
:103AF00089E741F48001FF0801618EE76422062115
:103B0000272000F07FFAE3E710220621272000F0AB
:103B100079FA1022D8E741F24100608182B2202177
:103B2000272000F06FFA324F0C2123203A6800F072
:103B300076FA07EB460004218288232000F062FA1F
:103B4000A07950B1E0792B490A5C0021212000F0D6
:103B500075FA4FF003094FF0010805F00F0029072F
:103B600040EA116062784FF4402101EA8241084343
:103B70004FF4401202EA095108434FF4003202EABE
:103B80004841084321794FF0F86202EA8151084325
:103B9000617940EAC16200211F2000F040FAA0785C
:103BA00061780843E179000440EA4132DBF8000023
:103BB0000021C260082000F032FABDE8F05F422226
:103BC00000210D2000F03ABA2C440008000000202B
:103BD000B0430008D0430008E8430008EE43000863
:103BE000B8430008FC430008084400080C440008DF
:103BF000F0430008F843000870B500210E2000F0E3
:103C0000ECF80446FFF7DEFE0546002211460E20C2
:103C100000F005FA402200210D2000F00FFA0A4AB8
:103C200000210F2000F0FBF900F0D8F92246002116
:103C30000E2000F0F4F92846FFF7BEFE03490020ED
:103C40000968487570BD0000F8FF272400000020B7
:103C500070B5584C05460026206806754675C68224
:103C60008662C6620663466300F0D2F85249884213
:103C700001D0881770BDA80702D400F05FF902E0F8
:103C800015F0F80F02D10020FFF757FD04220021A4
:103C9000242000F0D3F9A80710D40420FFF7C6FDB4
:103CA00010F0FF0F18D0022212212D2000F0C6F9CB
:103CB0002068C18A41F48051C1820DE03021282062
:103CC00000F08BF8B0F1883F04D02068C18A41F43D
:103CD0008051C18228070BD51E20FFF7A7FD22685F
:103CE00080B2010AD172A90709D4C10603D003E04A
:103CF0002068C67203E01020C0B200F016F9E80692
:103D000005D50620FFF792FD2168086001E02068D4
:103D10000660A80605D50720FFF788FD21684860E2
:103D200001E020684660680605D50820FFF77EFDA3
:103D30002168087201E020680672280605D509206E
:103D4000FFF774FD2168487201E020684672A807F9
:103D50000FD4E80702D0FFF757FD0CE0052136200D
:103D600000F02CF820F400720521362000F04AF90A
:103D700006E0680704D42068C18A41F40061C1826A
:103D80000120FFF7DAFC00220A212C2000F056F96E
:103D90000021042000F021F821680861C0F30140EF
:103DA00088720021082000F018F82168C8600020FF
:103DB00070BD0000000000203001CADE08B589B2E5
:103DC00080B26B46022200F027F89DF800009DF8B3
:103DD000011000EB012080B208BD38B5002489B283
:103DE00080B26B46042200F017F803216846425C5B
:103DF000491E02EB0424FAD5204638BD08B589B225
:103E000080B26B46012200F007F89DF8000008BD63
:103E100000210846FFF7E1BF08B551B140F040006E
:103E20008DF80000C8B27F2907D88DF80100022064
:103E30000BE08DF80000012007E040F080008DF8D5
:103E40000100C8098DF802000320694600F014FA49
:103E500008BD30B414460A462146034630BC112042
:103E6000FFF7DABF0346052200211520FFF7D4BF74
:103E70000346052200211720FFF7CEBF70B5044688
:103E8000400701D400F0AAF84FF480752A46E007F5
:103E900001D04FF4407200210D2000F0B3F8E0078C
:103EA00011D003210F20FFF7A9FF00070BD5FFF763
:103EB000A3FEA00704D42A4600210D2000F0A2F89A
:103EC0004FF0FF3070BD002070BD024641F6040186
:103ED0002E2000F097B8000070B50646032104209C
:103EE000FFF78CFF0D4D04465EB1324600210C20D9
:103EF00000F088F8286844F01002016941F0805110
:103F000005E020F010022868016921F0805101616C
:103F1000BDE870400321042000F090B800000020AC
:103F200002460021182000F06DB800F01F0040F09C
:103F300060020E212B2000F081B8000010B5FFF7C1
:103F4000F1FB002211462C2000F05CF80022062133
:103F50002C2000F073F8FFF7C3FB0022032136206A
:103F600000F06CF80120FFF725FDF0220321362038
:103F700000F064F8024900200968487510BD00008F
:103F80000000002010B500242146820704D5124B02
:103F9000802101221B685A75C00714D041F0060227
:103FA00000210D2000F04AF803210F20FFF706FF43
:103FB00010F4816F0DD0402200210D2000F03EF85A
:103FC0004FF0FF3405E041F0020200210D2000F027
:103FD00035F8204610BD00000000002010B5032178
:103FE0000F20FFF70BFF00F0800100F04000B1EB65
:103FF000400F06D001220321BDE810400D2000F043
:104000001DB810BD08B589B28DF80020120A8DF8D0
:10401000012080B26B46022200F018F808BD38B5C6
:1040200000236C46E254120A5B1C042BFADB89B2B3
:1040300080B22346042200F009F838BD07B589B2E2
:1040400080B202AB012200F001F80EBD08B551B1FB
:1040500040F0C0008DF80000C8B27F2909D88DF863
:10406000010002200DE040F080008DF800000120EA
:1040700007E040F080008DF80100C8098DF80200CB
:104080000320694600F05CF908BD10B514460244EF
:10409000B2F5806F07D80B46821E21460920FFF734
:1040A000D5FF002010BD4FF0FF3010BD890541EA5B
:1040B000C23204490968C96801430A430021082043
:1040C000FFF7ADBF000000208A68002A01DCFCF782
:1040D000D6BC521E8A604A68C0B2531C4B60107036
:1040E000704700000EB501210F20FDF757F9FDF7CD
:1040F000DDF9FDF78DFBFEF7DAFCFEF799FBFEF725
:10410000EFFBFEF711FCFFF71DF90446FFF714F96A
:10411000014622463848FEF70DFB384DFFF7A4F95B
:10412000A0B1012803D0022839D035A043E038A03F
:10413000FCF75EF9FFF714F90446FFF70BF90146A7
:10414000642322462C48FEF717FB36E0FFF708F9F8
:104150000446FFF7FFF80146642322462648FEF78F
:104160000BFBFFF7F7F80446FFF7FAF801462BA020
:10417000FCF73EF9A179D4E9030301F008028DE8C8
:104180000D0001F0040301F0020125A0A268FCF774
:104190002FF96278217828A0FCF72AF90DE0FFF7C3
:1041A000DFF80446FFF7D6F801466423224612489A
:1041B000FEF7E2FA22A0FCF71BF9287880B1002272
:1041C00011461046FCF7CEFF00202870FFF7C2F919
:1041D000FFF742F908B11DA000E01FA0FCF708F9A5
:1041E000FFF7B0F80446FFF7A7F801462246024859
:1041F000FEF7A0FA92E700001C01002060000020FA
:10420000536D746820737472616E67650A000000F4
:10421000555742206572726F720A000025750A00B8
:1042200025752C2025750A25752C2025750A2575E0
:104230002C2025750A00000025752025750A000030
:104240005461736B20646F6E650A000057726F6E65
:1042500067204352430A0000476F74206D657373F3
:104260006167650A000000000246002112790068BB
:1042700062F30701704700002DE9F04799461446A4
:104280000F460646FFF79EFB124D82460022102184
:104290002846FDF7A9FA4FF6FF78434632463946DD
:1042A0000D48FDF714FF4FF0FF3630B9A2B2434678
:1042B00049460948FDF75EFE10B13046BDE8F0877B
:1042C000012210212846FDF78FFA5046FFF774FBB4
:1042D0000020F3E700080140C40000207FB500245F
:1042E0000C4E4FF4805500940194029422462946C6
:1042F00030460394FDF778FA0220CDE90240CDE97B
:10430000005469463046FDF77FF90220FDF76AF94F
:104310007FBD0000000C0140024808210068FEF744
:1043200022BB0000C4000020024820210068FEF7E4
:104330001ABB0000C4000020026003717047000037
:104340002DE9F047994614460F460646FFF73AFB1B
:10435000124D8246002210212846FDF745FA4FF6FD
:10436000FF784346324639460D48FDF7B0FE4FF020
:10437000FF3630B9A2B2434649460948FDF7A7FEC9
:1043800010B13046BDE8F087012210212846FDF724
:104390002BFA5046FFF710FB0020F3E7000801401E
:1043A000C4000020020208020909010000002104E3
:1043B0000000010203040005405C0000A05C040052
:1043C000C06C0800805C0400E03F1E00E07D1E0021
:1043D00007040009080540080910400808054008BE
:1043E0001D0400081D0400081E265626BEBED8BCAB
:1043F00007A9022570889B88401008000A00160053
:10440000010006000100020087008D003C001A3107
:1044100052001A339A001A351D011A376B003B31CE
:10442000BE003B335E013B3596023B370000985996
:104430009859EA518E421E45142E0080EA51F42804
:104440003233E03A703DE03AC235842BC235323324
:10445000C235C235AE47E03A5038A230503800007D
:10446000000000000000000001000000000000004B
:10447000000000000000000000000000000000003C
:10448000000000000000000000000000000000002C
:1044900000000000000000000102030406070809F4
:1044A00000000000010203040100010140000000BF
:1044B000C0020020C00600204007002000000000CD
:1044C0003A535444494E003A5354444F5554003AD9
:1044D0005354444552520000F844000800000020A4
:1044E0008C00000028010008844500088C00002092
:1044F000DC0E0000440100088C00002000000400D5
:1045000000000000000000000000000000000000AB
:10451000000000000000000000000000000000009B
:10452000000000000000000000000000000000008B
:10453000000000000000000000000000000000007B
:104540000000000000000000000000000400002047
:1045500000000C000200000000000000010000004C
:1045600010000000000000000024F4000000000023
:10457000000000000000000000000000000000003B
:044580000000000037
:04000005080000ED02
:00000001FF
