:020000040800F2
:10000000680D002021020008A72800086D270008BD
:10001000A5280008B1110008212F000800000000E9
:10002000000000000000000000000000ED290008B2
:10003000B311000800000000A9280008EF290008FB
:100040003B0200083B0200083B0200083B0200089C
:100050003B0200083B0200083B0200083B0200088C
:100060003B0200083B0200083B0200083B0200087C
:100070003B0200083B0200083B0200083B0200086C
:100080003B0200083B0200083B0200083B0200085C
:100090003B0200083B0200083B0200083B0200084C
:1000A0003B0200083B0200083B0200083B0200083C
:1000B0003B0200083B0200083B0200083B0200082C
:1000C0003B0200083B0200083B0200083B0200081C
:1000D0003B020008392C00083B0200083B020008E4
:1000E0003B0200083B0200083B02000800F002F857
:1000F00000F04CF80AA090E8000C82448344AAF176
:100100000107DA4501D100F041F8AFF2090EBAE873
:100110000F0013F0010F18BFFB1A43F0010318473B
:10012000243C0000443C0000103A24BF78C878C149
:10013000FAD8520724BF30C830C144BF04680C60ED
:10014000704700000023002400250026103A28BF35
:1001500078C1FBD8520728BF30C148BF0B60704739
:1001600003681B0A28BF41F08001E92900F0628181
:10017000002070471FB59DE8030000F08DFA00F0E5
:10018000D9FB1FBD10B500F03EFC10BD00F0A9FC6E
:100190001146FFF7EFFF03F00DFB00F071FE03B413
:1001A000FFF7F0FF03BC00F0A9FE00000246D2E812
:1001B0004F0F411CC2E8431F03B1F8E770470246E6
:1001C00052E8000F411C42E8001303B1F8E7704702
:1001D000024652E8000F42E8001303B1F9E7704706
:1001E000024652E8000F830103D3BFF32F8F002094
:1001F000704700F00040084342E8000303B1F0E715
:100200007047024652E8000F800103D2BFF32F8FE0
:100210000020704742E8001303B1F3E70120704764
:100220000948804709480047FEE7FEE7FEE7FEE78A
:10023000FEE7FEE7FEE7FEE7FEE7FEE704480549C6
:10024000054A064B704700004F2A0008ED000008E1
:1002500068070020680D0020680900206809002058
:1002600070B5064600F0FCF9056806F10B0020F0B9
:100270000704B4429CBF002070BD2B466A68BAB127
:100280001068A04210D304F1080188423CBF5068B6
:10029000586007D35168101941601168091B01604B
:1002A00058601460101D70BD13465268002AE7D1D3
:1002B0002146284600F0DCF90028DED170BD53EA63
:1002C000020C00F069802DE9F04B4FF00006002B86
:1002D0001FBFB3FA83F503FA05F424FA05F65E406E
:1002E00012BF1643B2FA82F502FA05F4C5F12005F1
:1002F0001EBF22FA05FC44EA0C04203556EA044CE1
:100300004FEA144418BF641C4FF000084FF0000976
:10031000904271EB030C39D3002919BFB1FA81F770
:1003200001FA07F6B0FA80F700FA07F6C7F12007DE
:100330001EBF20FA07FC46EA0C062037B6FBF4FC89
:10034000A7EB0507103F07F01F0BCBF120060CFAB7
:100350000BFB2CFA06F644BFB3460026202FA4BFA1
:100360005E464FF0000B5BEA060C08BF4FF0010B36
:1003700019EB0B09ABFB027C48EB0608C01B06FB24
:1003800002CC0BFB03CC71EB0C01C1E70B46024620
:1003900041464846BDE8F08B13B54FF000004FF0E2
:1003A0000001AFF30080BDE81C40704710B54C1051
:1003B00084EA530404D54042C1F1000138BF491E0C
:1003C0001B4204D55242C3F1000338BF5B1EFFF746
:1003D00076FF14F0804F04D04042C1F1000138BFD5
:1003E000491E14F0004F04D05242C3F1000338BF3D
:1003F0005B1E10BD0FB4044910B503AA029800F0AB
:1004000065FA10BC5DF814FB940100200FB41CB514
:10041000074B06AA7B4469460090059800F03DFA18
:100420000020694600F04CFA1CBC5DF814FB00008B
:10043000A90400002DE9F0418046D21D22F00702F8
:100440000025D2E90002F52915A614D0011E72F18B
:10045000000106DA0023D0EB030063EB020211A6D1
:1004600008E0D8F800108B0701D50FA602E0490775
:1004700001D50EA601251146002408F1240704E049
:1004800000F067F930323A55641C50EA0102F7D1A6
:100490002B46324621464046BDE8F04100F09EB969
:1004A000000000002D0000002B00000020000000D4
:1004B0002DE9F0410F460546002028622846E968EC
:1004C000884770B3252805D0D5E901219047286ACF
:1004D000401CF2E7E9682846002688476C28044655
:1004E0000AD0682C08D04C2C35D06A2C31D0742C12
:1004F00031D07A2C2FD016E0E96806462846884786
:10050000B042044608D16C2E23D04FF480662846B2
:10051000E9688847044606E06C2E03D04FF48076E5
:1005200001E01EE04026E4B1A4F14100192802D800
:10053000203446F400663A46214628462E60FFF7EE
:100540000FFE60B1012808D0FF1D27F0070708370C
:10055000B4E78026DBE70026D9E73F1DAEE720465B
:10056000B2E7286ABDE8F08110B5431C02E010F83C
:10057000011B71B18107FAD14FF0013202C88C1A08
:100580008C4314EAC211F9D0C01A0A0603D0C01E67
:1005900010BDC01A10BD0A0401D0801E10BD090292
:1005A000FCD0401E10BD10B5203AC0F00B80B1E861
:1005B0001850203AA0E81850B1E81850A0E8185098
:1005C000BFF4F5AF5FEA027C24BFB1E81850A0E8A1
:1005D000185044BF18C918C0BDE810405FEA827CBB
:1005E00024BF51F8043B40F8043B08BF7047D207D2
:1005F00028BF31F8023B48BF11F8012B28BF20F873
:10060000023B48BF00F8012B70474FF0000200B5D5
:10061000134694469646203922BFA0E80C50A0E825
:100620000C50B1F12001BFF4F7AF090728BFA0E8D3
:100630000C5048BF0CC05DF804EB890028BF40F89F
:10064000042B08BF704748BF20F8022B11F0804FE1
:1006500018BF00F8012B70477047704770470000C3
:100660000048704744020020704770477047704749
:1006700038B504460A4600206946AFF300800028DA
:1006800008BF38BD02460099204600F035F9012028
:1006900038BD012000F0EAB9F8B5AFF30080054697
:1006A00000200C46102000BF0646A819A0420DD914
:1006B000324669460020AFF30080070008BF00F013
:1006C000D5F90098A04218BF0546C419FFF7C8FF26
:1006D00005600746F01D20F007004619284600F087
:1006E0000AF8B44208BFF8BDA21B31463868BDE81D
:1006F000F84000F001B900210160C0E90110704725
:100700001020704770B50446051FFFF7A9FF006869
:10071000002C14BF446870BD002C18BFAC423CBF15
:1007200020466468F8D301680A18AA4218BF4560D9
:1007300003D12A6805461144016028684119A14285
:100740001CBF6C6070BD61686960216808442860E6
:1007500070BD30B5B0F10A024FEA900E71F100039E
:100760004EEA817EB0EB0E0061EB91014FEA101E64
:100770004EEA017E10EB0E0041EB11114FEA102EF4
:100780004EEA016E10EB0E0041EB11214FEA104EC4
:100790004EEA014E10EB0E0041EB1141401841F1C1
:1007A00000014FEAD00040EA41704FEAD10110EB5E
:1007B00080054FEA810444EA907444EB01046D190A
:1007C00044EB0404521BA3414FF0000348BF0A321C
:1007D00000D530BD401C41F1000130BD2DE9F0478E
:1007E0000D4699469246044600F1240801688806A1
:1007F00004D5E06921F01001216000E00120A84249
:1008000001DD471B00E00027A1697A1902EB09000E
:10081000081AA0612078C00602D42046AFF30080F9
:10082000002608E0D4E901211AF806009047206A62
:10083000401C761C20624E45F4DB2078C0060AD5A9
:100840002046AFF3008006E0D4E901213020904734
:10085000206A401C2062381EA7F10107F4DC07E083
:10086000D4E9012118F805009047206A401C206255
:10087000281EA5F10105F3DC2046AFF300802078A7
:10088000000602D50220BDE8F0870120FBE700004A
:1008900001694A1C02610878704700B58FB0CDE944
:1008A00001310021059105497944CDE90310114634
:1008B0006846FFF7FDFD0FB000BD0000E5FFFFFF3C
:1008C0000A6802F8010B0A6070470000074B70B518
:1008D0000D467B44FFF7E1FF0446284600F026F86A
:1008E00010B14FF0FF3070BD204670BD4F2E00009C
:1008F000004870473C020020034640688C460028B0
:1009000018BF88423CBF03464068F8D318681844B3
:10091000884207D00CF1030020F00700001D411AA7
:10092000521A0146081D0A60FFF7ECBE007B00F07A
:100930008000704710B542485421FFF766FE4148D9
:100940005421FFF762FE40485421FFF75EFE3F4905
:100950003B483C4A3F4B08603D490A603A491960B0
:10096000531C0365481C1065012008653B48344A48
:1009700039A1784400F0E8F920B9384878440A38B9
:1009800000F08CFA37482F4A35A1784400F0DCF9A2
:1009900020B9344878440A3800F080FA32482A4AAC
:1009A0002FA1784400F0D0F920B92F4878440A38B4
:1009B00000F074FA40232248DC000021224600F0B7
:1009C000A0F920B125487844543800F067FA1D4852
:1009D00022464023002100F094F920B121487844B8
:1009E000543800F05BFA184822461023002100F02A
:1009F00088F9002806D01C487844BDE810405638D5
:100A000000F04CBA10BD104870B5006D20F0010424
:100A10000B4800F00FFA0B4800F00CFA0A4800F0FF
:100A200009FA09E0206D20F00105204600F002FAE5
:100A30002046FFF767FE2C46002CF3D170BD000066
:100A40004001002094010020E80100204C0000201B
:100A5000500000205400002072000000C23300004B
:100A600077000000AE3300009A33000010B500F0AC
:100A70001DFABDE8104000F00CBA0EB5CDE900013A
:100A8000FFF772FD029069460120ABBE0EBD08B5AE
:100A9000694600900220ABBE08BD1FB58DE8070077
:100AA00069460520ABBE04B010BD1FB58DE80F0030
:100AB00069460620ABBEF6E708B5694600900920F6
:100AC000ABBE08BD1CB5CDE9000169460A20ABBE2E
:100AD0001CBD704708B5694600900C20ABBE08BD30
:100AE00070477546FFF704FFAE460500694653465A
:100AF00020F00700854618B020B5FFF79FFBBDE842
:100B000020404FF000064FF000074FF000084FF074
:100B1000000B21F00701AC46ACE8C009ACE8C00905
:100B2000ACE8C009ACE8C0098D4670472DE9F04734
:100B300005460C46C86820F4201040F48000C860C8
:100B4000800602D5084600F0B2FAE06841F2820160
:100B50004FF0FF390140022903D0204600F050FA3F
:100B6000B5E000F42041B1F5004F0FD1C00306D528
:100B70006168E06A884200D80846606006E0206943
:100B8000E06260606069FFF7A5FFA061A0680022D5
:100B9000EEB200280DDAE1688B050AD4C043A060EC
:100BA00041F490302260E0606068411C6160067032
:100BB000A5E0E0689046226040F40050E0602069C3
:100BC00068BB6069FFF778FF012704F12405A0B135
:100BD000A08910F4407F08D0E069FFF741FB206155
:100BE00018B1E06840F4006016E0E7612561E06854
:100BF00020F4407040F480600EE0E069FFF730FBC5
:100C000000282061F1D0E06840F4006010F4407FDB
:100C1000E06002D140F48070E06020696060E068CC
:100C200025696FF0010AC1051FD56168E06A884235
:100C300000D80846411B04D02246284600F0EAF9B5
:100C4000F0BBE068010203D5E562C4E9015854E055
:100C5000691CE1626160E16940F48030491EC4E9C9
:100C6000021030462E70BDE8F087010202D500F474
:100C700080320AE06068411C61600670E0680A2EFC
:100C800040F48030E06006D00022E16A6068814272
:100C900003D90B4602E00122F7E70346A7895B1B55
:100CA0007F0503D4E7699F4200DDE2B1814200D8AD
:100CB0000146E5620F1AC4E90158002B09DD00E086
:100CC00005E022461946284600F0A4F908B1484636
:100CD000C9E747B1A069E5626560C01BA061E06833
:100CE00040F01000E060E068000208D56168A0698B
:100CF000E562491B08446560A0615046B3E7304691
:100D0000B1E770B5C468A50713D0650211D4B2F578
:100D1000807F09D0B2F5007F06D0B2F5806F08D190
:100D2000012300F1240106E05D1E6FF07F46B5420D
:100D300001D3012070BD0161C361416024F4706181
:100D40001143C160002070BD2DE9F0410C460746FB
:100D50001646104600F06EF82078611C61280AD013
:100D6000722802D077283CD102E00125002405E05A
:100D70000225042402E0082448F2020511F8010BC0
:100D80002B2806D0622809D011F8010C74280AD04B
:100D90000BE045F0030544F00204EFE745F00405DD
:100DA00044F00104EAE744F0100438462146FFF716
:100DB00064FE411C15D00021316171604FF4007157
:100DC000F560F1617061200704D5304602220021F0
:100DD00000F09AF8306D40F0010030653046BDE813
:100DE000F0810020FBE72DE9F0410D460646104C4E
:100DF000206DC10704D0410804D020F00104F7E7BA
:100E000022460EE05420FFF72BFA07000ED0206D8B
:100E100047F001010843542120653846FFF7F5FBF0
:100E20003A4629463046BDE8F0418DE70020D6E736
:100E3000400100202DE9F04704464FF000094FF033
:100E4000FF37C568D4E90486A80707D0204600F01C
:100E50000BF93046FFF71BFE002802DA3846BDE8E2
:100E6000F087280502D54046FFF74CFC4C21204670
:100E7000FFF7CBFB206D20F0010020654846EEE730
:100E800010B50446AFF300802046BDE81040FFF7E0
:100E900086B9002801D000F031B8704710B500F0D5
:100EA00041F9BDE81040FFF7F4BF000010B501287C
:100EB00005D0002103A000F01BF9012010BD09A1FD
:100EC000F8E7000053494752544D454D3A204F75BD
:100ED00074206F662068656170206D656D6F727932
:100EE000000000003A2048656170206D656D6F72EA
:100EF0007920636F727275707465640001491820FF
:100F0000ABBEFEE7260002002DE9F041044616467E
:100F10000D464769007B80072ED03846FFF7CCFD91
:100F200050BB3EB3012E02D0022E25D104E0204654
:100F300000F019F905441DE03846FFF7CBFDE168E4
:100F4000002841F01001E16005DA204600F058F871
:100F50000120BDE8F081C9030BD56268E16A9142C6
:100F600000D81146A26911442269891A814200DD24
:100F700008460544002D01DA0220EAE7E16A6068CC
:100F8000E268814206D29103E06203D522F4003187
:100F900041F01002A6690027AE4213DCE16A8142EB
:100FA00001D90B4600E0034603EB060C2369ACEBCA
:100FB000030CAC4506DD814201D98C4600E0844635
:100FC0009C4505D1A760276042F02000A5620DE096
:100FD000AD1BE669AE1B8142A66000D90846C01A67
:100FE000281A20605819606022F020000349084048
:100FF000E060002084F84870ABE70000BFCFD7FF67
:10100000C16821F4001141F08001C16000218160BC
:10101000016070472DE9F047814614460E464FF0B7
:10102000FF383248D5685769054209D03846A1696A
:10103000FFF748FD002811DB2C48C0430540E56060
:101040002B46324649463846FFF727FDA16920F076
:101050000042B21A11440028A16103D02046FFF7D4
:10106000CFFF4046BDE8F08770B504460569C06A09
:101070006168884200D80846E16821F42011E160E7
:10108000C90312D5A84208D02246411B2846FFF7C3
:10109000C1FF10B14FF0FF3070BD0020E562C4E920
:1010A0000150E06820F48030E060002070BD10B591
:1010B0000446C06820F02000E060A16AA069884270
:1010C0000DD02046FFF7D0FFE06820F4405040F0FC
:1010D0001000E060A06AA0612069E062606044F2F4
:1010E0004001E0688843E06010BD0000100002008D
:1010F00070B505460C460A2000E06D1C00F02CF887
:1011000035B128780028F8D102E0641C00F024F8FA
:1011100014B120780028F8D1BDE870400A2000F012
:101120001BB8000010B5014602A0FFF7E1FF012047
:1011300010BD000053494752545245443A2052656D
:101140006469726563743A2063616E2774206F70FE
:10115000656E3A200000000008B569468DF8000071
:101160000320ABBE08BD10B50146C268900703D08E
:10117000900607D5886A0AE000F016F801210160A0
:10118000881E10BD8B69486818440B69C01A91F815
:1011900048301BB191F84910401A10BD1103FCD51D
:1011A0000028FADD401E10BD004870473C020020B8
:1011B000FEE7704772B6FEE70749097851B1064964
:1011C000C0F3C6228039C0F30220895CC14001F01F
:1011D0000100704700207047400700202DE9F041D2
:1011E0000A4D05F11806AF6900F050F904460146B2
:1011F0003046FEF7EDFFB842F5D1844203D20348F2
:101200001030FEF7DCFF2046BDE8F08140070020EB
:1012100070B514460D460646FFF7CEFF88B1FFF7BE
:10122000DDFF0146B2B2EFF3058008B14FF40020B4
:10123000104323462A46BDE8704040F0407000F05D
:1012400003B8012070BD00002DE9FF5F8B464FF011
:10125000805000EADB08400007259A46914641008D
:1012600000EA990701EA5A062048FEF7A8FF01465E
:1012700000F03F021E48890900EB02144FF4700091
:1012800000EA01510098084340EA0800384330431F
:1012900040F0406104F10C00FEF7A2FF41011CD5B3
:1012A00080F0044101F000402BF000420243226034
:1012B00029F00042024362602AF00042024304F136
:1012C0000C00A260FEF79DFF48B10848001DFEF724
:1012D00076FF012004B0BDE8F09F6D1EC4D1034825
:1012E0000830FEF76CFF0020F4E700004407002000
:1012F000C00200202DE9F0478146FF2901D2FF2AD4
:1013000002D30020BDE8F0870024104D20464FF0A6
:10131000010A0AFA00F3564613EA090F0FD00B46EA
:10132000B2460AE004EBD30603F00708AF5D0AFA01
:1013300008FC47EA0C07AF555B1C9342F2D9401CEE
:1013400020340428E5D30120DCE70000C00600209B
:101350002DE9F0473C4C88468146002525708021C8
:10136000A4F18000FFF751F9384B4FF6FF761822B1
:10137000304641F2210700BF13F8011B80EA01202B
:101380005FF008015FEA004C06EA400000D57840B3
:10139000491EF7D1521EEFD12D4A236A01219342F3
:1013A00001D0226202E06288824202D06080E16164
:1013B00037E0E069401CE061012832D0254B002075
:1013C00003EB0011CA68560102D522F04062CA60E0
:1013D000401C4028F4D3E06901282BD000F05CF8D1
:1013E0000646DEB1FE2200214846FFF783FFEF22CA
:1013F00011460F20FFF77EFFFE2211460420FFF763
:1014000079FFFFF7EBFE014600231348E269FFF77F
:101410001BFFB8F1000F01D000F022F83046BDE804
:10142000F08765706560A5604FF480610948E560EC
:10143000FFF7EBF800F030F8061E00D00748C4E9CB
:1014400005052561CDE7000040070020203D00088C
:101450006B27A5E1C002002000FF00030090D0032D
:10146000084810B5017809B1012010BD01210170B3
:10147000FFF7B4FE014600231A460348FFF7E4FED7
:10148000F2E700004007002001FF00030148406828
:1014900070470000001000E00548016841F08071CD
:1014A00001600448016841F00101016001207047BA
:1014B000FCED00E0001000E010B590F821100022D3
:1014C000022905D00421816380F82020012010BD6D
:1014D00001680B6823F00E030B6001680B6823F0B2
:1014E00001030B6090F84030C46B012101FA03F353
:1014F000636080F8211080F82020104610BD0000A5
:1015000010B590F821100024022903D00421816332
:1015100001243DE001680A6822F00E020A600168B9
:101520000A6822F001020A601A4A0168914201D158
:10153000012121E0174A1432914201D110211BE010
:10154000144A2832914201D1891515E0114A3C32E2
:10155000914201D189140FE00E4A5032914202D1DA
:101560004FF4803108E00B4A6432914202D14FF4CB
:10157000801101E04FF08071064A083A5160012164
:1015800080F82110002180F82010416B01B18847BC
:10159000204610BD0800024070B5044600F004F972
:1015A0000546601C02D004480078044400F0FCF8B2
:1015B000401BA042FAD370BD380000202DE9F84F3F
:1015C000DFF8B891002409F1040A0AF1040B23465C
:1015D0000F270BF1040EC9E00125A5402A40AA42BD
:1015E0007DD1674ED1F804C0ACEB0608B44532D0CB
:1015F00014DCBCF1030F3AD009DCBCF1000F2AD097
:10160000BCF1010F1CD0BCF1020F31D11DE0BCF1C7
:10161000110F17D0BCF1120F2AD119E0B8F5881FAD
:1016200019D006DCB8F5803F15D0B8F5801F1FD162
:1016300011E0B8F5001F0ED0B8F5041F18D10AE06C
:10164000CB6815E0CB681B1D12E0CB6808330FE0B8
:10165000CB680C330CE08B682BB1012B4FF00803E7
:1016600003D0456104E0042302E0056100E00023AB
:10167000FF2A01D8064601E000F104064FEA84057E
:1016800001D9A5F12005D6F8008007FA05FC28EA63
:101690000C0803FA05F548EA0508C6F800804D680D
:1016A000ED0062D5374DAE6946F00106AE61AD6919
:1016B00024F0030605F001050095334D06EB050CFB
:1016C000DCF80850A607360F07FA06F825EA0805E1
:1016D000DFF8B880404503D14FF0000817E044E040
:1016E000DFF8AC80404502D14FF001080FE0DFF891
:1016F000A480404502D14FF0020808E0DFF898804E
:10170000404502D14FF0030801E04FF0040808FA09
:1017100006F848EA0508CCF808804D68D9F800605A
:10172000ED034D4601D5164300E096432E604D680B
:10173000DAF80060AD03554601D5164300E0964344
:101740002E604D68DBF80060ED025D4601D5164362
:1017500000E096432E604D68DEF80060AD027546ED
:1017600001D5164300E096432E60641C0D682A469E
:10177000E5407FF431AFBDE8F88F00000004014080
:10178000000011100010024000000140000801405C
:10179000000C014000100140001401400AB1016139
:1017A00070470904FBE700000148806870470000AB
:1017B0003800002002488168027811448160704737
:1017C00038000020074810B5016841F010010160A1
:1017D000032000F085F80F2000F006F800F024F850
:1017E000002010BD0020024070B50D4D04464FF49E
:1017F0007A712878B1FBF0F00A490968B1FBF0F082
:1018000000F0E3FD48B9102C07D200222146501EFB
:1018100000F046F800206C6070BD012070BD000033
:1018200038000020440000200C4808B5816941F0D0
:1018300001018161816901F001010091C16941F0FB
:101840008051C161C06900F0805000900448416837
:1018500021F0E06141F00071416008BD00100240DC
:101860000000014000280DDB00F01F020121914023
:101870004009800000F1E020C0F88011BFF34F8FD5
:10188000BFF36F8F7047002809DB00F01F020121B2
:1018900091404009800000F1E020C0F8001170473D
:1018A000F0B40E4B1B680C46C3F30223C3F10705CB
:1018B000042D00D90425191D072901D2002300E0B9
:1018C000DB1E012606FA05F1491E214099409E4083
:1018D000761E16403143F0BC01F023BB0CED00E056
:1018E000064900F0070208684FF6FF03184040EA77
:1018F0000220034A10430860704700000CED00E02E
:101900000000FA052DE9F0470F46050061D0434E6F
:10191000306800F00700B84209D2306820F00700B4
:1019200038433060306800F00700B84251D1286871
:101930003B4C810712D5400703D5606840F4E06056
:1019400060602878000703D5606840F460506060EC
:101950006068A96820F0F000084360602878C0073C
:1019600028D06868012810D02168022810D0890783
:1019700000292EDA616821F0030101436160FFF75D
:1019800013FF804641F288390DE021688903EFE7B3
:101990008901EDE7FFF708FFA0EB0801494502D9EF
:1019A0000320BDE8F0876068696800F00C00B0EBC8
:1019B000810FEFD1306800F00700B8420BD93068D2
:1019C00020F0070038433060306800F00700B8426C
:1019D00001D00120E5E72878400705D56068E9686F
:1019E00020F4E060084360602878000706D560684E
:1019F000296920F4605040EAC100606000F038F8C6
:101A00006168084AC1F30311515CC8400649086087
:101A100006480068FFF7E8FE0020C2E70020024009
:101A200000100240583C0008440000203C00002008
:101A30000448054900684968044AC1F30221515C21
:101A4000C84070474400002000100240683C000875
:101A50000448054900684968044AC1F3C221515C41
:101A6000C84070474400002000100240683C000855
:101A700013A185B00FC98DE80F0015A0154A0068A5
:101A80000490516801F00C00042804D0082804D008
:101A9000114805B070471148FBE7C1F38343C90300
:101AA0001DF8030009D5516804AAC1F34041515CF7
:101AB0000A4A5043B0FBF1F0EBE709494843E8E735
:101AC00002030405060708090A0B0C0D0E0F10107F
:101AD000010200000010024000127A000024F4000D
:101AE00000093D002DE9F84F040070D02078C04D6A
:101AF000C00749D06868C0F38100012807D0686832
:101B0000C0F38100022809D16868C00306D528689F
:101B1000800339D560680028E7D035E06068B0F50B
:101B2000803F0BD010B1B0F5A02F11D0286820F461
:101B300080302860286820F4802002E0286840F483
:101B400080302860606890B1FFF72EFE06460AE0FC
:101B5000286840F480202860F0E700BFFFF724FEEB
:101B6000801B642873D828688003F7D50CE0FFF742
:101B70001BFE064605E000BFFFF716FE801B64282B
:101B8000F0D828688003F7D420789A4E80074FF069
:101B900001094FF0000839D5686810F00C0F07D024
:101BA0006868C0F38100022809D16868C00306D4C0
:101BB0002868800714D52069012808D110E0206921
:101BC000B0B1C6F80090FFF7EFFD074605E00AE167
:101BD000FFF7EAFDC01B0228C4D828688007F7D5A4
:101BE0002868616920F0F80040EAC10028600DE033
:101BF000C6F80080FFF7D8FD074604E0FFF7D4FDE4
:101C0000C01B022823D828688007F7D42078000753
:101C10002CD57948A169D9B1C0F80090FFF7C4FD6F
:101C2000074604E0FFF7C0FDC01B02280FD8686A12
:101C30008007F7D571484FF4FA510068B0FBF1F016
:101C4000009000BF0098411E0091FAD20EE080E0A3
:101C5000C0F80080FFF7A8FD074604E0FFF7A4FDE9
:101C6000C01B022875D8686A8007F7D4207840071F
:101C700060D5E8690027C00008D4E86940F08050CA
:101C8000E861E869012700F0805000905C48016835
:101C9000C90513D40168834641F480710160FFF7E0
:101CA00083FD824606E000BFFFF77EFDA0EB0A0041
:101CB00064284ED8DBF80000C005F5D5E06801289F
:101CC0000AD008B1052813D0286A20F00100286244
:101CD000286A20F0040002E0286A40F0010028622F
:101CE000E06841F2883B98B1FFF75EFD82460BE069
:101CF000286A40F004002862EEE700BFFFF754FDB9
:101D0000A0EB0A0159455AD8286A8007F6D50CE09D
:101D1000FFF74AFD824605E0FFF746FDA0EB0A010A
:101D200059454CD8286A8007F6D41FB1E86920F0DD
:101D30008050E861E06988B36968C1F381010229D4
:101D400044D00228C6F8608004D0FFF72DFD044679
:101D500038E034E0FFF728FD074604E0FFF724FDF4
:101D6000C01B02282BD828688001F7D4206AB0F560
:101D7000803F05D16868A16820F40030084368609E
:101D8000D4E908010843696821F4741108436860C4
:101D9000C6F86090FFF708FD044606E025E000BFA6
:101DA000FFF702FD001B022809D828688001F7D53B
:101DB0001BE000BFFFF7F8FC001B022802D903203C
:101DC000BDE8F88F28688001F4D40EE00128F7D030
:101DD0006868226A00F48031914204D1616A00F49B
:101DE0007010884201D00120EAE70020E8E70000F7
:101DF00000100240000042428004424244000020A1
:101E00000070004070B5040009D0606A002540B140
:101E100025616561A56294F8510040B10CE0012094
:101E200070BD6068B0F5827FF4D0E561F2E784F8B8
:101E30005050204600F040F8022084F851002068FD
:101E4000016821F040010160A088218900F48270BE
:101E500001F404410843A18901F400610843217C95
:101E600001F002010843217D01F001010843218BAB
:101E700001F400710843217F01F03801084394F810
:101E8000201001F080010843218D01F40051084326
:101E900021680860A069042101EA104021684860B7
:101EA0002068C16921F40061C1616565012084F881
:101EB0005100002070BD000030B585B000240094B2
:101EC00001940294039400681449884223D1144871
:101ED000816941F480518161816901F480510491EB
:101EE000816941F00401816180690E4D00F00400B8
:101EF0000490A020009002200190032003906946E6
:101F00002846FFF75BFB4020CDE9000469462846E0
:101F10000294FFF753FB05B030BD000000300140D4
:101F200000100240000801402DE9F84F04464068C7
:101F30000025984616460F464FF0040BB0F5827FF9
:101F400001D1A06888B194F85000012818D0012070
:101F500084F85000FFF728FC814694F851004FF0B8
:101F6000000A01280ED0022582E084F851B0134601
:101F70000A462046CDF8008000F036F9BDE8F88F1B
:101F80000220FBE7002F72D0002E70D084F851B0F1
:101F9000C4F854A0A763A687E687C4F830A0A4F8C5
:101FA00034A0A4F836A0C4F840A0C4F844A0A068A7
:101FB000B0F5004F09D12068016821F040010160AF
:101FC0002068016821F480410160206801684906A9
:101FD00003D4016841F040010160E068D8B139E004
:101FE00020688168C90709D0007BA16B0870A06BCD
:101FF000401CA063E08F401EE0870CE0FFF7D4FB9D
:10200000A0EB0901414503D3B8F1FF3F03D036E00F
:10201000B8F1000F33D0E08F0028E1D11DE0206837
:102020008168C90709D0C068A16B0880A06B801CBB
:10203000A063E08F401EE0870CE0FFF7B5FBA0EB4C
:102040000901414503D3B8F1FF3F03D017E0B8F1D0
:10205000000F14D0E08F0028E1D14A4641462046C7
:1020600000F02AFC08B120206065606D00B10125F8
:10207000012084F8510084F850A028467EE703250B
:10208000F6E72DE9F84F044690F8500000271D466A
:102090001646894601280DD04FF0010B84F850B048
:1020A000FFF782FB804694F85100BA46012804D01D
:1020B000022793E00220BDE8F88FB9F1000F73D03A
:1020C000002E71D0032084F85100C4F854A0C4F845
:1020D0003090A686E686C4F838A0A4F83CA0A4F800
:1020E0003EA0C4F844A0C4F840A0A068B0F5004FDA
:1020F00009D12068016821F0400101602068016871
:1021000041F48041016020680168490603D40168F8
:1021100041F040010160E068B0F5006F606803D0F5
:1021200030B3012E24D041E008B1012E1CD1206B28
:1021300021680088C86006E020688168890709D5A1
:10214000216B0988C160206B801C2063E08E401EDB
:10215000E08609E0FFF728FBA0EB0800A84202D3C5
:10216000681C01D031E07DB3E08E0028E4D120E08E
:10217000206B21680078087306E020688168890771
:1021800009D5216B09780173206B401C2063E08E18
:10219000401EE0860AE0FFF707FBA0EB0800A8421C
:1021A00003D3681C02D010E017E06DB1E08E002868
:1021B000E3D142462946204600F0ACFB08B120207E
:1021C0006065A06818B106E0FFE7032706E0206815
:1021D000C16880680090606D00B1012784F851B03B
:1021E00084F850A0384666E72DE9F84F044690F889
:1021F000500000270A9E1D4692468B464FF001096B
:1022000001280ED0012084F85000FFF7CDFA804657
:1022100094F85100616801280CD0B1F5827F07D194
:1022200002E00220BDE8F88FA16809B9042801D0B6
:102230000227C2E0BBF1000F27D0BAF1000F24D073
:102240001DB394F85100042802D0052084F85100F1
:1022500000206065C4F838A0E587A587C4F830B0D1
:10226000E586A5862064606420680168490603D479
:10227000016841F040010160E068B0F5006F6068FE
:1022800005D0E8B3012D46D07FE0012795E008B1E5
:10229000012D39D1206B21680088C860206B801C1B
:1022A0002063E08E401EE0862EE02068816889076A
:1022B0000FD5E18E69B1B9F1010F0AD1216B0988FF
:1022C000C160206B801C2063E08E401EE0864FF0D2
:1022D000000920688168C9070CD0E18F51B1C0683E
:1022E000A16B0880A06B801CA063E08F401EE0877C
:1022F0004FF00109FFF758FAA0EB0800B04200E0E8
:1023000009E001D3701C50D1E08E0028CDD1E08FC0
:102310000028CAD13FE0206B216800780873206B49
:10232000401C2063E08E401EE0862EE0206881681D
:1023300089070FD5E18E69B1B9F1010F0AD1216B7F
:1023400009780173206B401C2063E08E401EE086FC
:102350004FF0000920688168C9070CD0E18F51B1A6
:10236000C068A16B0870A06B401CA063E08F401E8A
:10237000E0874FF00109FFF717FAA0EB0800B04221
:1023800002D3701C01D010E07EB1E08E0028CDD1C8
:10239000E08F0028CAD142463146204600F0BAFA02
:1023A00028B101272020606507E0032705E0A06829
:1023B00018B92068C16880680090012084F8510035
:1023C000002084F8500038462CE710B5401EB0F1CC
:1023D000807F01D3012010BD4FF0E02460610F2108
:1023E000601700F09EFD0020A06107202061002002
:1023F00010BD704770470000F8B5026804461068C9
:10240000D168536910F00F0F4FF0000553D003F05F
:10241000010601F4907737435FD0C20705D0CA05A3
:1024200003D5226C42F001022264420705D5DA0787
:1024300003D0226C42F002022264820705D5DA073B
:1024400003D0226C42F004022264020707D501F097
:102450002002324303D0226C42F008022264226C34
:10246000002A34D0800604D5880602D5204600F024
:102470000FFB20684069216CC0F38010090700D46D
:1024800030B3204600F0ECFA2068416949061BD5BC
:10249000416921F040014161A06BA8B158494163F5
:1024A000A06BFFF72DF8002811D0A06B416B01B095
:1024B000BDE8F040084783060FD58B060DD52046B2
:1024C000BDE8F84000F0E4BA2046FFF793FFF8BDFE
:1024D0002046FFF78FFF2564F8BD266B2023012ED1
:1024E00052D1C60650D5CE064ED510685068009021
:1024F000506940062AD5A16B086840680004000CAA
:10250000EAD0A68D8642E7D9E0858869202818D0D0
:10251000D06820F48070D0602068416921F001010A
:1025200041612068416921F04001416184F83E30F9
:1025300025632068C16821F01001C160A06BFEF71F
:10254000BBFFA08DE18D401A81B219E0A08DE18D15
:10255000401A81B2E08D0028BED00029BCD0D068DE
:1025600020F49070D0602068426922F0010242613C
:1025700084F83E3025632068C26822F01002C260F1
:102580002046FFF736FFF8BD05062BD50D0629D5E9
:1025900094F83D002128F6D1A068B0F5805F01D104
:1025A0002069B0B1206A411C21622168007848602E
:1025B000E08C401E0004000CE084E4D12068C16877
:1025C00021F08001C1602068C16841F04001C16014
:1025D000F8BD206A0088C0F308005060206A801CA3
:1025E0002062E5E74006F3D54806F1D5D1682046DC
:1025F00021F04001D16084F83D3000F0B6F8F8BD1C
:10260000512A000870B5040004D094F83D0000255C
:1026100010B106E0012070BD84F83C50204600F067
:1026200023F8242084F83D002068C16821F400517B
:10263000C160204600F088FA2068016921F49041C9
:1026400001612068416921F02A0141612068C16867
:1026500041F40051C1602564202084F83D0084F8D5
:102660003E00002070BD000030B585B0002400940D
:102670000194029403940068184988422CD11848A8
:10268000816941F480418161816901F48041049153
:10269000816941F0040181618069124D00F00400FC
:1026A00004904FF4007000900220019003200390EA
:1026B00069462846FEF782FF2815CDE900046946E1
:1026C00028460294FEF77AFF002211462520FFF7E4
:1026D000E7F82520FFF7D7F805B030BD00380140F6
:1026E000001002400008014090F83E30202B0ED12F
:1026F00059B152B190F83C30012B08D0012380F839
:102700003C300023036300F07BBA012070470220B5
:10271000704700000349884202D103490120087034
:1027200070470000C40000200800002090F83D30F1
:10273000202B18D1A9B1A2B190F83C30012B12D0B6
:1027400001628284C28400210164212280F83D203C
:1027500080F83C100068C16841F08001C160002031
:10276000704701207047022070477047FEE7000065
:102770002DE9F04385B0002425480094019402948B
:102780000394816941F020018161816901F0200198
:102790000491816941F004018161816901F00401C2
:1027A0000491816941F0080181618069DFF86480EA
:1027B00000F008000490002210214046FEF7EEFFD2
:1027C000DFF854904FF40057002239464846FEF790
:1027D000E5FF102001250226CDE90005CDE90246DE
:1027E00069464046FEF7EAFE0C480095CDE9010433
:1027F00069464846FEF7E2FE00970396CDE901548C
:1028000069464846FEF7DAFE05B0BDE8F0830000F1
:102810000010024000080140000C014000001110AF
:10282000104810B50E4901604FF4827141600021DB
:102830008160C1604FF400720161C0E90512182285
:10284000C0E90721416281620A21C162FFF7DAFA19
:10285000002803D0BDE81040FEF7ACBC10BD00005E
:10286000003001406C0000200D4810B50B4901609C
:102870004FF4E131416000214FF480628160C0E992
:1028800003120C22C0E90521C161FFF7BBFE00283D
:1028900003D0BDE81040FEF78DBC10BD00380140EC
:1028A000C4000020FEE7FEE77047026892B222F003
:1028B00038020A4302607047F8B5044640684FF496
:1028C0008273984217D1A0684FF48065B0F5004F2D
:1028D00001D0A8420FD12068066826F040060660A5
:1028E0006068984207D1A068A84204D100920B46C4
:1028F0000022012103E000920B46002280212046A5
:1029000000F018F8002804D0606D40F020006065E9
:102910000320F8BD38B50B46009204460022802102
:1029200000F008F8002804D0606D40F020006065D9
:10293000032038BD2DE9F8431E46914688460446DB
:10294000089DFEF731FF401B351AFEF72DFF0746A5
:1029500025480068C0F3CB30684338E0701C37D09E
:10296000FEF722FFC01BA84203D215B1009860B346
:102970002CE02068416821F0E00141606068B0F51A
:10298000827F0BD1A068B0F5004F02D0B0F5806F08
:1029900004D12068016821F040010160A06AB0F50F
:1029A000005F09D12068016821F4005101602068AE
:1029B000016841F400510160012084F851000020B9
:1029C00084F850000320BDE8F8830025401E0090E5
:1029D0002068816838EA010004D000214945BDD152
:1029E0000020F0E70121F9E7440000207047FEF7DE
:1029F000E1BE30B58FB028216846FDF706FE1421F0
:102A00000AA8FDF702FE01210804CDE90010002408
:102A1000029402250491CDE90750C0000990684650
:102A2000FFF760F808B172B6FEE70F20CDE90A059E
:102A30004FF48060CDE90C4002210AA80E94FEF705
:102A400061FF002801D072B6FEE70FB030BD7047BD
:102A500010B5406A0021C185C184FFF7CBFC10BDD1
:102A60000168CA6822F49072CA6001684A6922F05B
:102A700001024A61016B012904D10168CA6822F090
:102A80001002CA60202180F83E10002101637047C7
:102A900008B590F83E10222901D0022008BD8268B6
:102AA0004FF480539A4201D1016921B1816A9A425F
:102AB0001BD04AB10AE00268816A5268C2F3080278
:102AC0000A80816A891C08E0026972B10268526852
:102AD00002F07F020A70816A491C8162C18D491E21
:102AE0000904090CC18503D019E002685268F1E7B6
:102AF0000168CA6822F02002CA600168CA6822F42C
:102B00008072CA6001684A6922F001024A6120218C
:102B100080F83E10016B012903D0FFF7FBFD002078
:102B200008BD002101630168CA6822F01002CA6072
:102B300001680A68D20602D50A6849680091818D49
:102B4000FFF757FCEBE7000070B504460068016929
:102B5000E26821F44051114301612169A0680843F2
:102B6000616908432168CA6841F20C639A430243D1
:102B7000CA6020684169A26921F440711143416132
:102B80001E492068884202D1FEF762FF01E0FEF78D
:102B90004FFF00EBC00101EB001260686421800070
:102BA000B2FBF0F3B3FBF1F36FF018067343B2FB23
:102BB000F0F5B2FBF0F605EB8305322303EB0515C8
:102BC000B5FBF1F5B6FBF1F605F0F00505EB0615E2
:102BD000B2FBF0F6B2FBF0F0B0FBF1F06FF01802D0
:102BE000504306EB800003EB0010B0FBF1F02168CE
:102BF00000F00F002844886070BD000000380140DC
:102C000081628285C28500210164222280F83E20F3
:102C100080F83C100168CA6842F48072CA6001689A
:102C20004A6942F001024A610068C16841F020012E
:102C3000C1600020704700000148FFF7DDBB0000C5
:102C4000C400002000B50146007881F83800D1E9C1
:102C5000062301F1390000F0C3FFD1E9082301F197
:102C60003E0000F0BDFFD1E90A2301F143005DF809
:102C700004EB00F0B5BF2DE9F047044610213830D1
:102C800000F01EF918B1012809D0022807D02178D8
:102C900094F83800814204D0401C20700220BDE826
:102CA000F08704F13900054600F0B4FD064604F152
:102CB0003E000F46804600F0ADFD321804F11C00C6
:102CC0004F410BC8A6697118584112EB010947EB37
:102CD0000003284600F09EFDD4E90652A0FB0567DC
:102CE00001FB057100FB0215404600F093FDD4E99D
:102CF0000872A0FB07C801FB078100FB0211B6EBBD
:102D00000C0065EB01014A46FDF7D9FAC4E90A0156
:102D100004F1430000F07EFDC4E90C0100F066F808
:102D20000A46C4E90401034681F40071084309D04E
:102D3000D4E90210CD1A70EB020505D2591A62EBE4
:102D4000000207E00120AAE7591A62EB0002091C01
:102D500042F58072C4E906122078401C20700020E1
:102D60009DE710B500210170C0E90211C0E904110E
:102D7000C0E90611C0E90811C0E90A11C0E90C1147
:102D80004EF6602000F066F8002800D0012010BD4B
:102D900070B50446FFF756FF0122102104F13800F8
:102DA00000F076F8012815D000F03AF881F40072AE
:102DB0000243C4E902010CD02278521C2270D4E9EB
:102DC00004321D1A72EB010505D2C01A61EB020133
:102DD00007E0012070BDC01A61EB0201001C41F543
:102DE0008071C4E90801002070BD00001CB50B4CC7
:102DF00005E0204203D000204FF400711CBD0021EB
:102E00000F2000F060FB4105F3D50020CDE9000064
:102E1000684600F09DFBDDE900011CBD0090052423
:102E20001CB50B4C05E0204203D000204FF400718C
:102E30001CBD00210F2000F046FB0106F3D5002049
:102E4000CDE90000684600F089FBDDE900011CBD0A
:102E5000009005243EB50D4A044607CA8DE80700D8
:102E600000F012FD00F098FD012000F067FA401C10
:102E700009D0684600F056F9A0B200F075FB00F0EA
:102E800083FD00203EBD01203EBD00004C3C0008FB
:102E900070B503468D1C1446A8B20022194600F0F6
:102EA00022FC0022A8B2114600F02EFC0CB1022038
:102EB00000E0002000F0A8FB002800D0012070BD39
:102EC00070B50C460646154D0BE0284211D1800323
:102ED00007D54FF4003200210F2000F0CEFB022076
:102EE00070BD00210F2000F0EEFA4104EDD5800402
:102EF00001D4012070BD4FF480452A4600210F20E7
:102F000000F0BBFBA1B20022304600F018FB2A46BD
:102F100000210F2000F0B1FB002070BD00900524BF
:102F2000FEE70907090E002804DB00F1E02080F825
:102F30000014704700F00F0000F1E02080F8141D2D
:102F4000704710B5002202212C2000F0A5FB0222C0
:102F5000BDE8104011462C2000F09EBB10B5044681
:102F60006D2240F606012E2000F096FB41F6060188
:102F700014B140F2076201E041F20762BDE810407F
:102F80002E2000F06DBB10B5002000F007F80022E5
:102F90000421BDE81040362000F062BB38B504467D
:102FA0006B4602220021362000F0ACFA0F2C2DD205
:102FB000DFE804F01008162C2C2C2C1E3A2C2C4583
:102FC0004A4F560000208DF800009DF8010000F0E7
:102FD000FE0019E09DF8000000F0FC00401C04E039
:102FE0009DF8000000F0FC00801C8DF800000DE052
:102FF0009DF8000000F0B30040F048008DF800009C
:103000009DF8010040F080008DF801006B46012220
:103010000021362000F048FB0122114636200DF138
:10302000010300F041FB38BD9DF8000000F0B30043
:103030008DF800009DF8010000F07F00E4E79DF8A6
:10304000010040F00200DFE79DF8010000F0FD0004
:10305000DAE79DF8000000F0CF0040F02000C4E760
:1030600001208DF800000320CEE710B50E20FFF7F9
:1030700095FF4FF4004206212D2000F0F1FA0120C7
:1030800000F03AF8BDE810400120FFF787BF10B507
:10309000024604212D2000F0E3FA032206212D2010
:1030A00000F0FAFA002206212D2000F0F5FA0A219C
:1030B000BDE810402D2000F006BAF0B5D0E904417B
:1030C000A4185941C0E904410689456805EBC605C5
:1030D000D5E90067A41B61EB0701C0E90441C5E91C
:1030E000002301890288491C89B2B1FBF2F302FB7B
:1030F000131101810020F0BDFEF74EBA002802D066
:103100000620FEF7C0BB7047054810B5006810F0F8
:10311000010402D00620FEF7A5FB204610BD0000EA
:10312000140401402DE9F05F0446057840797749A1
:103130004FF00009C84631F810706078401EC6B2E2
:10314000042D76D0072D74D00020714A8246E37991
:103150001068002B01696ED021F480010161217A91
:1031600081720169934621F440320261217A4FF461
:10317000403303EA01410A4302610021042000F0C8
:103180007CFA3A4642F604012E2000F069FA3046F5
:10319000FFF7E4FE5F4F6049785D51F8202007217A
:1031A0002B2000F06AFA785D5C490A5C0B212B2029
:1031B00000F072FA5A49282011F80A200B2100F079
:1031C0006BFA785D574951F820200C21282000F037
:1031D00054FAE079544901EB8000A17930F81120CC
:1031E0000221272000F03CFA5048042130F8162034
:1031F000272000F035FAE07910B3A078042825D014
:1032000020220621272000F02BFA28222621272021
:1032100000F042FA4648E17800EB061050F8212011
:103220000821272000F029FA6089B0B118E000E0F9
:1032300001E0012089E741F48001FF0801618EE788
:1032400064220621272000F00BFAE3E71022062172
:10325000272000F005FA1022D8E741F241006081F2
:1032600082B22021272000F0FBF9324F0C212320CD
:103270003A6800F002FA07EB460004218288232016
:1032800000F0EEF9A07950B1E0792B490A5C0021F9
:10329000212000F001FA4FF003094FF0010805F07A
:1032A0000F00290740EA116062784FF4402101EADB
:1032B000824108434FF4401202EA095108434FF497
:1032C000003202EA4841084321794FF0F86202EAED
:1032D00081510843617940EAC16200211F2000F05A
:1032E000CCF9A07861780843E179000440EA4132E2
:1032F000DBF800000021C260082000F0BEF9BDE844
:10330000F05F422200210D2000F0C6B9EC3C00081D
:1033100048000020703C0008903C0008A83C0008D1
:10332000AE3C0008783C0008BC3C0008C83C0008E3
:10333000CC3C0008B03C0008B83C000870B5584CC4
:1033400005460026206806754675C6828662C662F6
:103350000663466300F0D2F85249884201D08817CC
:1033600070BDA80702D400F02BF902E015F0F80FA9
:1033700002D10020FFF712FE04220021242000F0D9
:103380008BF9A80710D40420FFF781FE10F0FF0F7F
:1033900018D0022212212D2000F07EF92068C18A67
:1033A00041F48051C1820DE03021282000F08BF8DB
:1033B000B0F1883F04D02068C18A41F48051C182B5
:1033C00028070BD51E20FFF762FE226880B2010A93
:1033D000D172A90709D4C10603D003E02068C672E0
:1033E00003E01020C0B200F0E3F8E80605D506209F
:1033F000FFF74DFE2168086001E020680660A8061E
:1034000005D50720FFF743FE2168486001E02068EA
:103410004660680605D50820FFF739FE2168087266
:1034200001E020680672280605D50920FFF72FFE67
:103430002168487201E020684672A8070FD4E807A7
:1034400002D0FFF712FE0CE00521362000F02CF828
:1034500020F400720521362000F002F906E068072A
:1034600004D42068C18A41F40061C1820120FFF7C1
:1034700095FD00220A212C2000F00EF900210420E5
:1034800000F021F821680861C0F301408872002132
:10349000082000F018F82168C860002070BD000006
:1034A000480000203001CADE08B589B280B26B4600
:1034B000022200F027F89DF800009DF8011000EBB3
:1034C000012080B208BD38B5002489B280B26B46B5
:1034D000042200F017F803216846425C491E02EB03
:1034E0000424FAD5204638BD08B589B280B26B46AF
:1034F000012200F007F89DF8000008BD00210846F1
:10350000FFF7E1BF08B551B140F040008DF8000071
:10351000C8B27F2907D88DF8010002200BE08DF892
:103520000000012007E040F080008DF80100C8098C
:103530008DF802000320694600F074F908BD30B42C
:1035400014460A462146034630BC1120FFF7DABF75
:103550000346052200211520FFF7D4BF03460522AC
:1035600000211720FFF7CEBF70B5064603210420C7
:10357000FFF7BAFF0D4D04465EB1324600210C2024
:1035800000F06EF8286844F01002016941F08051A3
:1035900005E020F010022868016921F080510161E6
:1035A000BDE870400321042000F076B848000020F8
:1035B00000F01F0040F060020E212B2000F06CB8DC
:1035C00010B5FFF7E0FC002211462C2000F048F86F
:1035D000002206212C2000F05FF8FFF7B2FC002249
:1035E0000321362000F058F80120FFF785FDF02276
:1035F0000321362000F050F8024900200968487580
:1036000010BD00004800002010B5002421468207AC
:1036100004D5124B802101221B685A75C00714D0B3
:1036200041F0060200210D2000F036F803210F20A2
:10363000FFF73AFF10F4816F0DD0402200210D20DA
:1036400000F02AF84FF0FF3405E041F002020021BB
:103650000D2000F021F8204610BD00004800002099
:1036600008B589B28DF80020120A8DF8012080B2C9
:103670006B46022200F018F808BD38B500236C46EE
:10368000E254120A5B1C042BFADB89B280B2234697
:10369000042200F009F838BD07B589B280B202AB48
:1036A000012200F001F80EBD08B551B140F0C00094
:1036B0008DF80000C8B27F2909D88DF801000220DA
:1036C0000DE040F080008DF80000012007E040F0A0
:1036D00080008DF80100C8098DF8020003206946BA
:1036E00000F082FA08BD10B514460244B2F5806FAE
:1036F00007D80B46821E21460920FFF7D5FF002080
:1037000010BD4FF0FF3010BD890541EAC2320449B7
:103710000968C96801430A4300210820FFF7ADBFCB
:10372000480000208A68002A01DCFDF7FFB9521E1C
:103730008A604A68C0B2531C4B601070704710B565
:10374000D0E90441028800232046FCF72FFE10BD7B
:1037500030B587B005460C46ADF800108800FCF780
:103760007FFD0190002007E0019B002103EBC003D7
:10377000401CC3E9001180B2A042F5D30020CDE97E
:103780000400ADF80800182269462846FCF70BFF34
:1037900007B030BD70B50646C2EBC20000EB40007A
:1037A0000D4662F30704401CFCF75AFD3560C6E97C
:1037B000014070BD01210F20FDF7CAFDFDF750FE4D
:1037C000FEF700F8FFF715F9FEF7D2FFFFF728F82C
:1037D000FFF74AF809A10C48FCF718FE0A48FCF765
:1037E000C3FEC2B20948084902700D208854084837
:1037F000FEF79CFF00F0D8F8FEE7000048414C209F
:103800006973204F4B00000058000020000000208A
:10381000C4000020024600211279006862F307010B
:10382000704700002DE9F047994614460F460646BA
:10383000FFF76AFC124D8246002210212846FDF750
:10384000ADFF4FF6FF784346324639460D48FEF746
:1038500018FC4FF0FF3630B9A2B24346494609483A
:10386000FEF762FB10B13046BDE8F087012210215F
:103870002846FDF793FF5046FFF740FC0020F3E792
:10388000000801406C0000207FB500240C4E4FF46E
:1038900080550094019402942246294630460394B0
:1038A000FDF77CFF0220CDE90240CDE900546946D6
:1038B0003046FDF783FE0220FDF76EFE7FBD00005F
:1038C000000C01400FB424202DE9F0470124089991
:1038D0000DF124094FF0000889684FF00A0A0870BA
:1038E0003FE000BF09F1070020F00700F0E80265A3
:1038F0008146002D07DA00207642896860EB0505D5
:103900002D200855641C0A2703E000BF07EB870041
:1039100047003A46002330462946FCF747FD084356
:10392000F4D1B7FBFAF70FE03A46002330462946B8
:10393000FCF73CFD0899B7FBFAF78968303016466A
:1039400008551D4604F10104002FEDD108994FF0F0
:1039500020008968085508F1010000F0FF0804F113
:10396000010408990A794245BCD88968641E3B2045
:1039700008550898641CA2B281680068FEF7D6FE5C
:10398000BDE8F0075DF814FB024808210068FEF767
:103990008CBF00006C000020024820210068FEF768
:1039A00084BF00006C000020A2B0042263491EA85E
:1039B000FFF7F0FE0A2118A8FFF7CAFE01226049AE
:1039C0005E48FEF791FE4FF4FA7505E05DA0FCF746
:1039D00011FD2846FDF7E0FD06A8FFF7C2F9002813
:1039E000F4D15BA0FCF706FD554C641E07E05BA01C
:1039F000FCF700FD2846FDF7CFFD06223BE006A8B8
:103A0000FFF7C6F90028F2D159A0FCF7F3FC2078A3
:103A100040B36078312804D0322808D033280CD045
:103A200019E018A8FFF78BFEC4E9080113E018A8F5
:103A3000FFF785FEC4E90A010DE0D4E90821D4E9C5
:103A40000A309B1A60EB0100C4E90430D21A61EB22
:103A50000001C4E9062100202070012238493748BE
:103A6000FEF742FE06A8FFF706F9F0B1012807D0DD
:103A7000022811D0072200210846FDF7C9FBBEE746
:103A8000002103220846FDF7C3FB3DA0FCF7B2FC72
:103A90002846FDF781FDB2E7002104220846FDF724
:103AA000B7FB3CA0FCF7A6FCA9E7002105220846CD
:103AB000FDF7AEFB3CA0FCF79DFCDDE9122318A846
:103AC000FFF7FBFADDE9102318A8FFF7F6FA18A8AC
:103AD000FFF735FECDE90201DDE91201CDE9000174
:103AE000DDE9102334A0FCF785FC18A8FFF727FEBA
:103AF000D4E90632C31A6426A3FB060761EB020170
:103B000001FB0671002203FB0211D4E90423FCF738
:103B1000D6FB606018A8FFF712FE0B46D4E9061228
:103B2000CDE90412D4E90412CDE90212616802461B
:103B30001EA80091FFF7C6FE61E70000C400002048
:103B400009000020496E6974206572726F720A0064
:103B5000496E6974204F4B0A000000005472616E78
:103B6000736D6974696F6E206572726F720A0000FE
:103B70005472616E736D6974696F6E204F4B0A00E9
:103B8000526563656976696E67206572726F720A45
:103B900000000000436F6E6E656374696F6E206590
:103BA00072726F720A000000526563656976696E11
:103BB00067204F4B0A0000004F776E3A256C6C6906
:103BC0003B2052656365697665643A256C6C693B98
:103BD0002046696C747265643A256C6C690A000051
:103BE00002600371704700002DE9F04799461446C2
:103BF0000F460646FFF788FA124D82460022102132
:103C00002846FDF7CBFD4FF6FF784346324639464E
:103C10000D48FEF736FA4FF0FF3630B9A2B24346F0
:103C200049460948FEF72DFA10B13046BDE8F08745
:103C3000012210212846FDF7B1FD5046FFF75EFA3C
:103C40000020F3E7000801406C0000200202080297
:103C5000090901000000210400000000000000002C
:103C60000102030406070809000000000102030422
:103C70000000010203040005405C0000A05C040099
:103C8000C06C0800805C0400E03F1E00E07D1E0068
:103C90000704000908054008091040080805400805
:103CA0001D0400081D0400081E265626BEBED8BCF2
:103CB00007A9022570889B88401008000A0016009A
:103CC000010006000100020087008D003C001A314F
:103CD00052001A339A001A351D011A376B003B3116
:103CE000BE003B335E013B3596023B3700009859DE
:103CF0009859EA518E421E45142E0080EA51F4284C
:103D00003233E03A703DE03AC235842BC23532336B
:103D1000C235C235AE47E03A5038A23050380000C4
:103D20000100010140000000C0020020C006002088
:103D300040070020000000003A7474003A747400D8
:103D40003A747400643D0008000000205800000030
:103D500028010008BC3D000858000020100D00009C
:103D60004401000800000000000000000000000006
:103D70000000000000000000000000000100000042
:103D80000000000000000000000000000000000033
:103D90000000000000000000000000000100000022
:103DA00010000000000000000024F40008010020C2
:0C3DB00000000000000000000000000007
:04000005080000ED02
:00000001FF
